{
  "contractName": "BankLiability",
  "abi": [
    {
      "inputs": [
        {
          "internalType": "address",
          "name": "RPTokenAddr",
          "type": "address"
        }
      ],
      "stateMutability": "nonpayable",
      "type": "constructor"
    },
    {
      "anonymous": false,
      "inputs": [
        {
          "indexed": true,
          "internalType": "address",
          "name": "sender",
          "type": "address"
        },
        {
          "indexed": true,
          "internalType": "address",
          "name": "recipient",
          "type": "address"
        },
        {
          "indexed": false,
          "internalType": "uint256",
          "name": "amount",
          "type": "uint256"
        }
      ],
      "name": "Accept",
      "type": "event"
    },
    {
      "anonymous": false,
      "inputs": [
        {
          "indexed": true,
          "internalType": "address",
          "name": "sender",
          "type": "address"
        },
        {
          "indexed": true,
          "internalType": "address",
          "name": "recipient",
          "type": "address"
        }
      ],
      "name": "RevokeRequest",
      "type": "event"
    },
    {
      "anonymous": false,
      "inputs": [
        {
          "indexed": true,
          "internalType": "address",
          "name": "sender",
          "type": "address"
        },
        {
          "indexed": true,
          "internalType": "address",
          "name": "recipient",
          "type": "address"
        },
        {
          "indexed": false,
          "internalType": "uint256",
          "name": "amount",
          "type": "uint256"
        }
      ],
      "name": "TransferRequest",
      "type": "event"
    },
    {
      "inputs": [],
      "name": "_RPToken",
      "outputs": [
        {
          "internalType": "address",
          "name": "",
          "type": "address"
        }
      ],
      "stateMutability": "view",
      "type": "function"
    },
    {
      "inputs": [
        {
          "internalType": "address",
          "name": "",
          "type": "address"
        }
      ],
      "name": "_liabilities",
      "outputs": [
        {
          "internalType": "int256",
          "name": "",
          "type": "int256"
        }
      ],
      "stateMutability": "view",
      "type": "function"
    },
    {
      "inputs": [],
      "name": "_owner",
      "outputs": [
        {
          "internalType": "address",
          "name": "",
          "type": "address"
        }
      ],
      "stateMutability": "view",
      "type": "function"
    },
    {
      "inputs": [],
      "name": "_totalLiability",
      "outputs": [
        {
          "internalType": "int256",
          "name": "",
          "type": "int256"
        }
      ],
      "stateMutability": "view",
      "type": "function"
    },
    {
      "inputs": [
        {
          "internalType": "address",
          "name": "addr",
          "type": "address"
        }
      ],
      "name": "loadCredit",
      "outputs": [],
      "stateMutability": "nonpayable",
      "type": "function"
    },
    {
      "inputs": [
        {
          "internalType": "address",
          "name": "recipient",
          "type": "address"
        },
        {
          "internalType": "uint256",
          "name": "amount",
          "type": "uint256"
        }
      ],
      "name": "transferRequest",
      "outputs": [
        {
          "internalType": "bool",
          "name": "",
          "type": "bool"
        }
      ],
      "stateMutability": "nonpayable",
      "type": "function"
    },
    {
      "inputs": [
        {
          "internalType": "address",
          "name": "recipient",
          "type": "address"
        }
      ],
      "name": "revokeRequest",
      "outputs": [
        {
          "internalType": "bool",
          "name": "",
          "type": "bool"
        }
      ],
      "stateMutability": "nonpayable",
      "type": "function"
    },
    {
      "inputs": [
        {
          "internalType": "address",
          "name": "sender",
          "type": "address"
        }
      ],
      "name": "accept",
      "outputs": [
        {
          "internalType": "bool",
          "name": "",
          "type": "bool"
        }
      ],
      "stateMutability": "nonpayable",
      "type": "function"
    },
    {
      "inputs": [
        {
          "internalType": "address",
          "name": "addr",
          "type": "address"
        },
        {
          "internalType": "uint256",
          "name": "amount",
          "type": "uint256"
        }
      ],
      "name": "increaseLiability",
      "outputs": [],
      "stateMutability": "nonpayable",
      "type": "function"
    },
    {
      "inputs": [
        {
          "internalType": "address",
          "name": "addr",
          "type": "address"
        },
        {
          "internalType": "uint256",
          "name": "amount",
          "type": "uint256"
        }
      ],
      "name": "decreaseLiability",
      "outputs": [],
      "stateMutability": "nonpayable",
      "type": "function"
    }
  ],
  "bytecode": "0x60806040523480156200001157600080fd5b5060405162001d1f38038062001d1f83398181016040528101906200003791906200012e565b620000476200010f60201b60201c565b6000806101000a81548173ffffffffffffffffffffffffffffffffffffffff021916908373ffffffffffffffffffffffffffffffffffffffff16021790555080600160006101000a81548173ffffffffffffffffffffffffffffffffffffffff021916908373ffffffffffffffffffffffffffffffffffffffff16021790555080600260006101000a81548173ffffffffffffffffffffffffffffffffffffffff021916908373ffffffffffffffffffffffffffffffffffffffff16021790555050620001a8565b600033905090565b60008151905062000128816200018e565b92915050565b6000602082840312156200014157600080fd5b6000620001518482850162000117565b91505092915050565b600062000167826200016e565b9050919050565b600073ffffffffffffffffffffffffffffffffffffffff82169050919050565b62000199816200015a565b8114620001a557600080fd5b50565b611b6780620001b86000396000f3fe608060405234801561001057600080fd5b506004361061009e5760003560e01c8063a84df20111610066578063a84df2011461016d578063b2bdfa7b1461019d578063b7439deb146101bb578063b9ff644a146101d7578063c2456fce146101f35761009e565b8063531b117f146100a357806371349647146100c15780638408ab85146100f15780639c23c86a146101215780639f0059201461013d575b600080fd5b6100ab610211565b6040516100b8919061153e565b60405180910390f35b6100db60048036038101906100d691906112e0565b610217565b6040516100e89190611523565b60405180910390f35b61010b600480360381019061010691906112b7565b6105fc565b604051610118919061153e565b60405180910390f35b61013b600480360381019061013691906112e0565b610614565b005b610157600480360381019061015291906112b7565b610789565b6040516101649190611523565b60405180910390f35b610187600480360381019061018291906112b7565b610c78565b6040516101949190611523565b60405180910390f35b6101a561100e565b6040516101b291906114df565b60405180910390f35b6101d560048036038101906101d091906112b7565b611032565b005b6101f160048036038101906101ec91906112e0565b6110d5565b005b6101fb61124a565b60405161020891906114df565b60405180910390f35b60045481565b6000600260009054906101000a900473ffffffffffffffffffffffffffffffffffffffff1673ffffffffffffffffffffffffffffffffffffffff166349d407c961025f611270565b6040518263ffffffff1660e01b815260040161027b91906114df565b60206040518083038186803b15801561029357600080fd5b505afa1580156102a7573d6000803e3d6000fd5b505050506040513d601f19601f820116820180604052508101906102cb919061131c565b61030a576040517f08c379a000000000000000000000000000000000000000000000000000000000815260040161030190611679565b60405180910390fd5b600260009054906101000a900473ffffffffffffffffffffffffffffffffffffffff1673ffffffffffffffffffffffffffffffffffffffff166349d407c9846040518263ffffffff1660e01b815260040161036591906114df565b60206040518083038186803b15801561037d57600080fd5b505afa158015610391573d6000803e3d6000fd5b505050506040513d601f19601f820116820180604052508101906103b5919061131c565b6103f4576040517f08c379a00000000000000000000000000000000000000000000000000000000081526004016103eb90611619565b60405180910390fd5b6000821415610438576040517f08c379a000000000000000000000000000000000000000000000000000000000815260040161042f90611639565b60405180910390fd5b600060066000610446611270565b73ffffffffffffffffffffffffffffffffffffffff1673ffffffffffffffffffffffffffffffffffffffff16815260200190815260200160002060008573ffffffffffffffffffffffffffffffffffffffff1673ffffffffffffffffffffffffffffffffffffffff16815260200190815260200160002054146104fe576040517f08c379a00000000000000000000000000000000000000000000000000000000081526004016104f590611559565b60405180910390fd5b816006600061050b611270565b73ffffffffffffffffffffffffffffffffffffffff1673ffffffffffffffffffffffffffffffffffffffff16815260200190815260200160002060008573ffffffffffffffffffffffffffffffffffffffff1673ffffffffffffffffffffffffffffffffffffffff168152602001908152602001600020819055508273ffffffffffffffffffffffffffffffffffffffff166105a5611270565b73ffffffffffffffffffffffffffffffffffffffff167fb22781db7a1c1a87b86b7215e93e2ad8791bb8cc984291af99060086f14f0b4a846040516105ea9190611699565b60405180910390a36001905092915050565b60056020528060005260406000206000915090505481565b60008054906101000a900473ffffffffffffffffffffffffffffffffffffffff1673ffffffffffffffffffffffffffffffffffffffff16610653611270565b73ffffffffffffffffffffffffffffffffffffffff1614806106c95750600160009054906101000a900473ffffffffffffffffffffffffffffffffffffffff1673ffffffffffffffffffffffffffffffffffffffff166106b1611270565b73ffffffffffffffffffffffffffffffffffffffff16145b6106d257600080fd5b6000811415610716576040517f08c379a000000000000000000000000000000000000000000000000000000000815260040161070d90611599565b60405180910390fd5b80600560008473ffffffffffffffffffffffffffffffffffffffff1673ffffffffffffffffffffffffffffffffffffffff168152602001908152602001600020600082825461076591906116c5565b92505081905550806004600082825461077e91906116c5565b925050819055505050565b6000600260009054906101000a900473ffffffffffffffffffffffffffffffffffffffff1673ffffffffffffffffffffffffffffffffffffffff166349d407c96107d1611270565b6040518263ffffffff1660e01b81526004016107ed91906114df565b60206040518083038186803b15801561080557600080fd5b505afa158015610819573d6000803e3d6000fd5b505050506040513d601f19601f8201168201806040525081019061083d919061131c565b61087c576040517f08c379a000000000000000000000000000000000000000000000000000000000815260040161087390611679565b60405180910390fd5b600260009054906101000a900473ffffffffffffffffffffffffffffffffffffffff1673ffffffffffffffffffffffffffffffffffffffff166349d407c9836040518263ffffffff1660e01b81526004016108d791906114df565b60206040518083038186803b1580156108ef57600080fd5b505afa158015610903573d6000803e3d6000fd5b505050506040513d601f19601f82011682018060405250810190610927919061131c565b610966576040517f08c379a000000000000000000000000000000000000000000000000000000000815260040161095d90611659565b60405180910390fd5b6000600660008473ffffffffffffffffffffffffffffffffffffffff1673ffffffffffffffffffffffffffffffffffffffff16815260200190815260200160002060006109b1611270565b73ffffffffffffffffffffffffffffffffffffffff1673ffffffffffffffffffffffffffffffffffffffff1681526020019081526020016000205490506000811415610a32576040517f08c379a0000000000000000000000000000000000000000000000000000000008152600401610a29906115d9565b60405180910390fd5b80600560008573ffffffffffffffffffffffffffffffffffffffff1673ffffffffffffffffffffffffffffffffffffffff1681526020019081526020016000206000828254610a8191906116c5565b925050819055508060056000610a95611270565b73ffffffffffffffffffffffffffffffffffffffff1673ffffffffffffffffffffffffffffffffffffffff1681526020019081526020016000206000828254610ade9190611759565b92505081905550600660008473ffffffffffffffffffffffffffffffffffffffff1673ffffffffffffffffffffffffffffffffffffffff1681526020019081526020016000206000610b2e611270565b73ffffffffffffffffffffffffffffffffffffffff1673ffffffffffffffffffffffffffffffffffffffff16815260200190815260200160002060009055600360009054906101000a900473ffffffffffffffffffffffffffffffffffffffff1673ffffffffffffffffffffffffffffffffffffffff16636c44f25584610bb3611270565b6040518363ffffffff1660e01b8152600401610bd09291906114fa565b600060405180830381600087803b158015610bea57600080fd5b505af1158015610bfe573d6000803e3d6000fd5b505050508273ffffffffffffffffffffffffffffffffffffffff16610c21611270565b73ffffffffffffffffffffffffffffffffffffffff167ffd21f523f83f9e9994366516baa84b6ce04a7400fc3cbe841ac50bfe9f02ee2d83604051610c669190611699565b60405180910390a36001915050919050565b6000600260009054906101000a900473ffffffffffffffffffffffffffffffffffffffff1673ffffffffffffffffffffffffffffffffffffffff166349d407c9610cc0611270565b6040518263ffffffff1660e01b8152600401610cdc91906114df565b60206040518083038186803b158015610cf457600080fd5b505afa158015610d08573d6000803e3d6000fd5b505050506040513d601f19601f82011682018060405250810190610d2c919061131c565b610d6b576040517f08c379a0000000000000000000000000000000000000000000000000000000008152600401610d6290611679565b60405180910390fd5b600260009054906101000a900473ffffffffffffffffffffffffffffffffffffffff1673ffffffffffffffffffffffffffffffffffffffff166349d407c9836040518263ffffffff1660e01b8152600401610dc691906114df565b60206040518083038186803b158015610dde57600080fd5b505afa158015610df2573d6000803e3d6000fd5b505050506040513d601f19601f82011682018060405250810190610e16919061131c565b610e55576040517f08c379a0000000000000000000000000000000000000000000000000000000008152600401610e4c906115b9565b60405180910390fd5b600060066000610e63611270565b73ffffffffffffffffffffffffffffffffffffffff1673ffffffffffffffffffffffffffffffffffffffff16815260200190815260200160002060008473ffffffffffffffffffffffffffffffffffffffff1673ffffffffffffffffffffffffffffffffffffffff1681526020019081526020016000205411610f1b576040517f08c379a0000000000000000000000000000000000000000000000000000000008152600401610f12906115f9565b60405180910390fd5b600060066000610f29611270565b73ffffffffffffffffffffffffffffffffffffffff1673ffffffffffffffffffffffffffffffffffffffff16815260200190815260200160002060008473ffffffffffffffffffffffffffffffffffffffff1673ffffffffffffffffffffffffffffffffffffffff168152602001908152602001600020819055508173ffffffffffffffffffffffffffffffffffffffff16610fc3611270565b73ffffffffffffffffffffffffffffffffffffffff167fc352649e1359e533bb72bc2288978e87cec95fbc70a4ed34dad23581885ddc6460405160405180910390a360019050919050565b60008054906101000a900473ffffffffffffffffffffffffffffffffffffffff1681565b60008054906101000a900473ffffffffffffffffffffffffffffffffffffffff1673ffffffffffffffffffffffffffffffffffffffff16611071611270565b73ffffffffffffffffffffffffffffffffffffffff161461109157600080fd5b80600360006101000a81548173ffffffffffffffffffffffffffffffffffffffff021916908373ffffffffffffffffffffffffffffffffffffffff16021790555050565b60008054906101000a900473ffffffffffffffffffffffffffffffffffffffff1673ffffffffffffffffffffffffffffffffffffffff16611114611270565b73ffffffffffffffffffffffffffffffffffffffff16148061118a5750600160009054906101000a900473ffffffffffffffffffffffffffffffffffffffff1673ffffffffffffffffffffffffffffffffffffffff16611172611270565b73ffffffffffffffffffffffffffffffffffffffff16145b61119357600080fd5b60008114156111d7576040517f08c379a00000000000000000000000000000000000000000000000000000000081526004016111ce90611579565b60405180910390fd5b80600560008473ffffffffffffffffffffffffffffffffffffffff1673ffffffffffffffffffffffffffffffffffffffff16815260200190815260200160002060008282546112269190611759565b92505081905550806004600082825461123f9190611759565b925050819055505050565b600160009054906101000a900473ffffffffffffffffffffffffffffffffffffffff1681565b600033905090565b60008135905061128781611aec565b92915050565b60008151905061129c81611b03565b92915050565b6000813590506112b181611b1a565b92915050565b6000602082840312156112c957600080fd5b60006112d784828501611278565b91505092915050565b600080604083850312156112f357600080fd5b600061130185828601611278565b9250506020611312858286016112a2565b9150509250929050565b60006020828403121561132e57600080fd5b600061133c8482850161128d565b91505092915050565b61134e816117ed565b82525050565b61135d816117ff565b82525050565b61136c8161180b565b82525050565b600061137f603d836116b4565b915061138a8261186e565b604082019050919050565b60006113a2601f836116b4565b91506113ad826118bd565b602082019050919050565b60006113c5601f836116b4565b91506113d0826118e6565b602082019050919050565b60006113e8602f836116b4565b91506113f38261190f565b604082019050919050565b600061140b6036836116b4565b91506114168261195e565b604082019050919050565b600061142e603d836116b4565b9150611439826119ad565b604082019050919050565b6000611451603e836116b4565b915061145c826119fc565b604082019050919050565b6000611474601f836116b4565b915061147f82611a4b565b602082019050919050565b60006114976035836116b4565b91506114a282611a74565b604082019050919050565b60006114ba6012836116b4565b91506114c582611ac3565b602082019050919050565b6114d981611835565b82525050565b60006020820190506114f46000830184611345565b92915050565b600060408201905061150f6000830185611345565b61151c6020830184611345565b9392505050565b60006020820190506115386000830184611354565b92915050565b60006020820190506115536000830184611363565b92915050565b6000602082019050818103600083015261157281611372565b9050919050565b6000602082019050818103600083015261159281611395565b9050919050565b600060208201905081810360008301526115b2816113b8565b9050919050565b600060208201905081810360008301526115d2816113db565b9050919050565b600060208201905081810360008301526115f2816113fe565b9050919050565b6000602082019050818103600083015261161281611421565b9050919050565b6000602082019050818103600083015261163281611444565b9050919050565b6000602082019050818103600083015261165281611467565b9050919050565b600060208201905081810360008301526116728161148a565b9050919050565b60006020820190508181036000830152611692816114ad565b9050919050565b60006020820190506116ae60008301846114d0565b92915050565b600082825260208201905092915050565b60006116d08261180b565b91506116db8361180b565b9250817f7fffffffffffffffffffffffffffffffffffffffffffffffffffffffffffffff038313600083121516156117165761171561183f565b5b817f800000000000000000000000000000000000000000000000000000000000000003831260008312161561174e5761174d61183f565b5b828201905092915050565b60006117648261180b565b915061176f8361180b565b9250827f8000000000000000000000000000000000000000000000000000000000000000018212600084121516156117aa576117a961183f565b5b827f7fffffffffffffffffffffffffffffffffffffffffffffffffffffffffffffff0182136000841216156117e2576117e161183f565b5b828203905092915050565b60006117f882611815565b9050919050565b60008115159050919050565b6000819050919050565b600073ffffffffffffffffffffffffffffffffffffffff82169050919050565b6000819050919050565b7f4e487b7100000000000000000000000000000000000000000000000000000000600052601160045260246000fd5b7f4c696162696c6974793a20596f752063616e6e6f742073656e64206d756c746960008201527f706c6520726571756573747320746f207468652073616d652062616e6b000000602082015250565b7f4c696162696c6974793a20696e637265617365207a65726f20616d6f756e7400600082015250565b7f4c696162696c6974793a206465637265617365207a65726f20616d6f756e7400600082015250565b7f4c696162696c6974793a20596f752063616e206f6e6c79207265766f6b65207260008201527f65717565737420746f2062616e6b730000000000000000000000000000000000602082015250565b7f4c696162696c6974793a205468652073656e646572206469646e27742073656e60008201527f6420746865207472616e73666572207265717565737400000000000000000000602082015250565b7f4c696162696c6974793a20596f752063616e6e6f74207265766f6b652072657160008201527f7565737473206265666f72652073656e64696e67207265717565737473000000602082015250565b7f4c696162696c6974793a20596f752063616e206f6e6c7920726571756573742060008201527f746f207472616e73666572206c696162696c69747920746f2062616e6b730000602082015250565b7f4c696162696c6974793a207472616e73666572207a65726f20616d6f756e7400600082015250565b7f4c696162696c6974793a20596f752063616e206f6e6c7920616363657074207460008201527f686520726571756573742066726f6d2062616e6b730000000000000000000000602082015250565b7f596f7520617265206e6f7420612062616e6b0000000000000000000000000000600082015250565b611af5816117ed565b8114611b0057600080fd5b50565b611b0c816117ff565b8114611b1757600080fd5b50565b611b2381611835565b8114611b2e57600080fd5b5056fea26469706673582212205845e3e12b30b9ed2a28213406a5076079d00936248c5671d6bd049c036e946164736f6c63430008040033",
  "immutableReferences": {},
  "source": "// \"SPDX-License-Identifier: UNLICENSED\"\npragma solidity ^0.8.0;\n\nimport \"./Context.sol\";\n\ncontract BankLiability is Context {\n    address public _owner;\n    address public _RPToken;\n    MiniRPToken private rp;\n    MiniCredit private credit;\n    int256 public _totalLiability;\n\n    mapping(address => int256) public _liabilities;\n    mapping(address => mapping(address => uint256)) private _confirmRemittance;\n\n    event TransferRequest(\n        address indexed sender,\n        address indexed recipient,\n        uint256 amount\n    );\n    event RevokeRequest(address indexed sender, address indexed recipient);\n    event Accept(\n        address indexed sender,\n        address indexed recipient,\n        uint256 amount\n    );\n\n    modifier onlyOwner() {\n        require(_msgSender() == _owner);\n        _;\n    }\n\n    modifier onlyBank() {\n        require(rp._banks(_msgSender()), \"You are not a bank\");\n        _;\n    }\n\n    constructor(address RPTokenAddr) {\n        _owner = _msgSender();\n        _RPToken = RPTokenAddr;\n        rp = MiniRPToken(RPTokenAddr);\n    }\n\n    function loadCredit(address addr) public onlyOwner {\n        credit = MiniCredit(addr);\n    }\n\n    function transferRequest(address recipient, uint256 amount)\n        public\n        onlyBank\n        returns (bool)\n    {\n        require(\n            rp._banks(recipient),\n            \"Liability: You can only request to transfer liability to banks\"\n        );\n        require(amount != 0, \"Liability: transfer zero amount\");\n        require(\n            _confirmRemittance[_msgSender()][recipient] == 0,\n            \"Liability: You cannot send multiple requests to the same bank\"\n        );\n        _confirmRemittance[_msgSender()][recipient] = amount;\n\n        emit TransferRequest(_msgSender(), recipient, amount);\n        return true;\n    }\n\n    function revokeRequest(address recipient) public onlyBank returns (bool) {\n        require(\n            rp._banks(recipient),\n            \"Liability: You can only revoke request to banks\"\n        );\n        require(\n            _confirmRemittance[_msgSender()][recipient] > 0,\n            \"Liability: You cannot revoke requests before sending requests\"\n        );\n        _confirmRemittance[_msgSender()][recipient] = 0;\n\n        emit RevokeRequest(_msgSender(), recipient);\n        return true;\n    }\n\n    function accept(address sender) public onlyBank returns (bool) {\n        require(\n            rp._banks(sender),\n            \"Liability: You can only accept the request from banks\"\n        );\n        uint256 amount = _confirmRemittance[sender][_msgSender()];\n        require(\n            amount != 0,\n            \"Liability: The sender didn't send the transfer request\"\n        );\n        _liabilities[sender] += int256(amount);\n        _liabilities[_msgSender()] -= int256(amount);\n        delete _confirmRemittance[sender][_msgSender()];\n\n        credit.changeLoanLender(sender, _msgSender());\n        \n        emit Accept(_msgSender(), sender, amount);\n        return true;\n    }\n\n    function increaseLiability(address addr, uint256 amount) public {\n        require(_msgSender() == _owner || _msgSender() == _RPToken);\n        require(amount != 0, \"Liability: increase zero amount\");\n        _liabilities[addr] -= int256(amount);\n        _totalLiability -= int256(amount);\n    }\n\n    function decreaseLiability(address addr, uint256 amount) public {\n        require(_msgSender() == _owner || _msgSender() == _RPToken);\n        require(amount != 0, \"Liability: decrease zero amount\");\n        _liabilities[addr] += int256(amount);\n        _totalLiability += int256(amount);\n    }\n}\n\ncontract MiniRPToken {\n    function _banks(address) public view returns (bool) {}\n}\n\ncontract MiniCredit {\n    function changeLoanLender(address, address) public {}\n}\n",
  "sourcePath": "/Users/hc/Projects/Reward-Points-Platform/contracts/BankLiability.sol",
  "compiler": {
    "name": "solc",
    "version": "0.8.4+commit.c7e474f2.Emscripten.clang"
  },
  "schemaVersion": "3.4.1",
  "updatedAt": "2021-05-20T11:16:57.608Z",
  "devdoc": {
    "kind": "dev",
    "methods": {},
    "version": 1
  },
  "userdoc": {
    "kind": "user",
    "methods": {},
    "version": 1
  }
}