{
  "contractName": "C_RPToken",
  "abi": [
    {
      "inputs": [
        {
          "internalType": "address",
          "name": "",
          "type": "address"
        }
      ],
      "name": "_banks",
      "outputs": [
        {
          "internalType": "bool",
          "name": "",
          "type": "bool"
        }
      ],
      "stateMutability": "view",
      "type": "function"
    },
    {
      "inputs": [
        {
          "internalType": "address",
          "name": "",
          "type": "address"
        },
        {
          "internalType": "uint256",
          "name": "",
          "type": "uint256"
        }
      ],
      "name": "deliver",
      "outputs": [
        {
          "internalType": "bool",
          "name": "",
          "type": "bool"
        }
      ],
      "stateMutability": "nonpayable",
      "type": "function"
    }
  ],
  "bytecode": "0x608060405234801561001057600080fd5b5061020f806100206000396000f3fe608060405234801561001057600080fd5b50600436106100365760003560e01c80633a537b0c1461003b57806349d407c91461006b575b600080fd5b610055600480360381019061005091906100fd565b61009b565b6040516100629190610148565b60405180910390f35b610085600480360381019061008091906100d4565b6100a3565b6040516100929190610148565b60405180910390f35b600092915050565b6000919050565b6000813590506100b9816101ab565b92915050565b6000813590506100ce816101c2565b92915050565b6000602082840312156100e657600080fd5b60006100f4848285016100aa565b91505092915050565b6000806040838503121561011057600080fd5b600061011e858286016100aa565b925050602061012f858286016100bf565b9150509250929050565b61014281610175565b82525050565b600060208201905061015d6000830184610139565b92915050565b600061016e82610181565b9050919050565b60008115159050919050565b600073ffffffffffffffffffffffffffffffffffffffff82169050919050565b6000819050919050565b6101b481610163565b81146101bf57600080fd5b50565b6101cb816101a1565b81146101d657600080fd5b5056fea2646970667358221220345bddc85bd3f75e8325b173353d5054f4d9b20198350d3a85cde49fc004da1164736f6c63430008040033",
  "immutableReferences": {},
  "source": "// \"SPDX-License-Identifier: UNLICENSED\"\npragma solidity ^0.8.0;\n\nimport \"./Context.sol\";\n\ncontract Credit is Context {\n    struct loanRecord {\n        // address borrower;\n        // address bank;\n        uint256 loanAmount;\n        uint256 pointsAmount;\n        uint256 timestamp;\n        uint16 monthN;\n        uint16 annualInterestRate; // This value should be divided by 1000. Ex: 3% = 30 / 1000\n        uint256 loanBalance;\n        string option; // Loan case or something else\n    }\n\n    struct keyList {\n        address[] keys;\n        mapping(address => bool) existing;\n    }\n\n    address public _owner;\n    address public _BankLiabilityAddr;\n    C_RPToken private rp;\n\n    mapping(address => mapping(address => loanRecord[])) private _loanRecords;\n    mapping(address => keyList) private _bankToBorrowers;\n\n    event Loan(\n        address indexed borrower,\n        address indexed bank,\n        uint256 loanAmount,\n        uint256 pointsAmount,\n        uint256 monthlyDueDate,\n        uint16 monthN,\n        uint16 annualInterestRate,\n        uint256 loanBalance\n    );\n\n    modifier onlyOwner() {\n        require(_msgSender() == _owner, \"You are not a contract owner\");\n        _;\n    }\n\n    modifier onlyBank() {\n        require(rp._banks(_msgSender()), \"You are not a bank\");\n        _;\n    }\n\n    constructor(address RPTokenAddr) {\n        _owner = _msgSender();\n        rp = C_RPToken(RPTokenAddr);\n    }\n\n    function setBankLiabilityAddr(address addr) public onlyOwner {\n        _BankLiabilityAddr = addr;\n    }\n\n    function loan(\n        address borrower,\n        uint256 loanAmount,\n        uint256 pointsAmount,\n        uint16 monthN,\n        uint16 annualInterestRate,\n        string memory option\n    ) public onlyBank {\n        //uint256 monthlyDueDate = block.timestamp + 30 days;\n        uint256 timestamp = block.timestamp;\n        _loanRecords[_msgSender()][borrower].push() = loanRecord(\n            loanAmount,\n            pointsAmount,\n            timestamp,\n            monthN,\n            annualInterestRate,\n            loanAmount,\n            option\n        );\n        if (!_bankToBorrowers[_msgSender()].existing[borrower]) {\n            _bankToBorrowers[_msgSender()].keys.push(borrower);\n            _bankToBorrowers[_msgSender()].existing[borrower] = true;\n        }\n        rp.deliver(borrower, pointsAmount);\n\n        emit Loan(borrower, _msgSender(), loanAmount, pointsAmount, timestamp, monthN, annualInterestRate, loanAmount);\n    }\n\n    function changeLoanLender(address oldBank, address newBank) public {\n        require(_msgSender() == _owner || _msgSender() == _BankLiabilityAddr);\n        address[] memory keys = _bankToBorrowers[oldBank].keys;\n        for (uint256 i = 0; i < keys.length; i++) {\n            _loanRecords[newBank][keys[i]] = _loanRecords[oldBank][keys[i]];\n            delete _loanRecords[oldBank][keys[i]];\n        }\n        delete _bankToBorrowers[oldBank];\n    }\n\n    function getLoanRecord(address bank, address borrower, uint16 index) public view returns (loanRecord memory) {\n        require(_msgSender() == bank || _msgSender() == borrower, \"You can only get records related to yourself\");\n        return _loanRecords[bank][borrower][index];\n    }\n}\n\ncontract C_RPToken {\n    function _banks(address) public view returns (bool) {}\n\n    function deliver(address, uint256) public returns (bool) {}\n}\n",
  "sourcePath": "/Users/hc/Projects/Reward-Points-Platform/contracts/Credit.sol",
  "compiler": {
    "name": "solc",
    "version": "0.8.4+commit.c7e474f2.Emscripten.clang"
  },
  "schemaVersion": "3.4.1",
  "updatedAt": "2021-05-20T11:16:57.638Z",
  "devdoc": {
    "kind": "dev",
    "methods": {},
    "version": 1
  },
  "userdoc": {
    "kind": "user",
    "methods": {},
    "version": 1
  }
}