{
  "contractName": "Credit",
  "abi": [
    {
      "inputs": [
        {
          "internalType": "address",
          "name": "RPTokenAddr",
          "type": "address"
        }
      ],
      "stateMutability": "nonpayable",
      "type": "constructor"
    },
    {
      "inputs": [],
      "name": "_BankLiabilityAddr",
      "outputs": [
        {
          "internalType": "address",
          "name": "",
          "type": "address"
        }
      ],
      "stateMutability": "view",
      "type": "function",
      "constant": true
    },
    {
      "inputs": [],
      "name": "_owner",
      "outputs": [
        {
          "internalType": "address",
          "name": "",
          "type": "address"
        }
      ],
      "stateMutability": "view",
      "type": "function",
      "constant": true
    },
    {
      "inputs": [
        {
          "internalType": "address",
          "name": "addr",
          "type": "address"
        }
      ],
      "name": "setBankLiabilityAddr",
      "outputs": [],
      "stateMutability": "nonpayable",
      "type": "function"
    },
    {
      "inputs": [
        {
          "internalType": "address",
          "name": "borrower",
          "type": "address"
        },
        {
          "internalType": "uint256",
          "name": "loanAmount",
          "type": "uint256"
        },
        {
          "internalType": "uint256",
          "name": "pointsAmount",
          "type": "uint256"
        },
        {
          "internalType": "uint16",
          "name": "annualInterestRate",
          "type": "uint16"
        }
      ],
      "name": "loan",
      "outputs": [],
      "stateMutability": "nonpayable",
      "type": "function"
    },
    {
      "inputs": [
        {
          "internalType": "address",
          "name": "oldBank",
          "type": "address"
        },
        {
          "internalType": "address",
          "name": "newBank",
          "type": "address"
        }
      ],
      "name": "changeLoanLender",
      "outputs": [],
      "stateMutability": "nonpayable",
      "type": "function"
    }
  ],
  "bytecode": "0x60806040523480156200001157600080fd5b50604051620011cf380380620011cf8339818101604052810190620000379190620000ed565b62000047620000ce60201b60201c565b6000806101000a81548173ffffffffffffffffffffffffffffffffffffffff021916908373ffffffffffffffffffffffffffffffffffffffff16021790555080600260006101000a81548173ffffffffffffffffffffffffffffffffffffffff021916908373ffffffffffffffffffffffffffffffffffffffff1602179055505062000167565b600033905090565b600081519050620000e7816200014d565b92915050565b6000602082840312156200010057600080fd5b60006200011084828501620000d6565b91505092915050565b600062000126826200012d565b9050919050565b600073ffffffffffffffffffffffffffffffffffffffff82169050919050565b620001588162000119565b81146200016457600080fd5b50565b61105880620001776000396000f3fe608060405234801561001057600080fd5b50600436106100575760003560e01c8063317ffd611461005c5780636c44f255146100785780637a3661f814610094578063b2bdfa7b146100b2578063e0656d60146100d0575b600080fd5b61007660048036038101906100719190610d21565b6100ec565b005b610092600480360381019061008d9190610ce5565b61058f565b005b61009c6109de565b6040516100a99190610e11565b60405180910390f35b6100ba610a04565b6040516100c79190610e11565b60405180910390f35b6100ea60048036038101906100e59190610cbc565b610a28565b005b600260009054906101000a900473ffffffffffffffffffffffffffffffffffffffff1673ffffffffffffffffffffffffffffffffffffffff166349d407c9610132610b01565b6040518263ffffffff1660e01b815260040161014e9190610e11565b60206040518083038186803b15801561016657600080fd5b505afa15801561017a573d6000803e3d6000fd5b505050506040513d601f19601f8201168201806040525081019061019e9190610d84565b6101dd576040517f08c379a00000000000000000000000000000000000000000000000000000000081526004016101d490610e75565b60405180910390fd5b6040518060a001604052808481526020018381526020014281526020018261ffff1681526020018481525060036000610214610b01565b73ffffffffffffffffffffffffffffffffffffffff1673ffffffffffffffffffffffffffffffffffffffff16815260200190815260200160002060008673ffffffffffffffffffffffffffffffffffffffff1673ffffffffffffffffffffffffffffffffffffffff16815260200190815260200160002060018160018154018082558091505003906000526020600020906005020160008201518160000155602082015181600101556040820151816002015560608201518160030160006101000a81548161ffff021916908361ffff1602179055506080820151816004015590505060046000610303610b01565b73ffffffffffffffffffffffffffffffffffffffff1673ffffffffffffffffffffffffffffffffffffffff16815260200190815260200160002060010160008573ffffffffffffffffffffffffffffffffffffffff1673ffffffffffffffffffffffffffffffffffffffff16815260200190815260200160002060009054906101000a900460ff166104d9576004600061039b610b01565b73ffffffffffffffffffffffffffffffffffffffff1673ffffffffffffffffffffffffffffffffffffffff168152602001908152602001600020600001849080600181540180825580915050600190039060005260206000200160009091909190916101000a81548173ffffffffffffffffffffffffffffffffffffffff021916908373ffffffffffffffffffffffffffffffffffffffff160217905550600160046000610447610b01565b73ffffffffffffffffffffffffffffffffffffffff1673ffffffffffffffffffffffffffffffffffffffff16815260200190815260200160002060010160008673ffffffffffffffffffffffffffffffffffffffff1673ffffffffffffffffffffffffffffffffffffffff16815260200190815260200160002060006101000a81548160ff0219169083151502179055505b600260009054906101000a900473ffffffffffffffffffffffffffffffffffffffff1673ffffffffffffffffffffffffffffffffffffffff16633a537b0c85846040518363ffffffff1660e01b8152600401610536929190610e2c565b602060405180830381600087803b15801561055057600080fd5b505af1158015610564573d6000803e3d6000fd5b505050506040513d601f19601f820116820180604052508101906105889190610d84565b5050505050565b60008054906101000a900473ffffffffffffffffffffffffffffffffffffffff1673ffffffffffffffffffffffffffffffffffffffff166105ce610b01565b73ffffffffffffffffffffffffffffffffffffffff1614806106445750600160009054906101000a900473ffffffffffffffffffffffffffffffffffffffff1673ffffffffffffffffffffffffffffffffffffffff1661062c610b01565b73ffffffffffffffffffffffffffffffffffffffff16145b61064d57600080fd5b6000600460008473ffffffffffffffffffffffffffffffffffffffff1673ffffffffffffffffffffffffffffffffffffffff16815260200190815260200160002060000180548060200260200160405190810160405280929190818152602001828054801561071157602002820191906000526020600020905b8160009054906101000a900473ffffffffffffffffffffffffffffffffffffffff1673ffffffffffffffffffffffffffffffffffffffff16815260200190600101908083116106c7575b5050505050905060005b815181101561098657600360008573ffffffffffffffffffffffffffffffffffffffff1673ffffffffffffffffffffffffffffffffffffffff168152602001908152602001600020600083838151811061079e577f4e487b7100000000000000000000000000000000000000000000000000000000600052603260045260246000fd5b602002602001015173ffffffffffffffffffffffffffffffffffffffff1673ffffffffffffffffffffffffffffffffffffffff168152602001908152602001600020600360008573ffffffffffffffffffffffffffffffffffffffff1673ffffffffffffffffffffffffffffffffffffffff168152602001908152602001600020600084848151811061085a577f4e487b7100000000000000000000000000000000000000000000000000000000600052603260045260246000fd5b602002602001015173ffffffffffffffffffffffffffffffffffffffff1673ffffffffffffffffffffffffffffffffffffffff1681526020019081526020016000209080546108aa929190610b09565b50600360008573ffffffffffffffffffffffffffffffffffffffff1673ffffffffffffffffffffffffffffffffffffffff1681526020019081526020016000206000838381518110610925577f4e487b7100000000000000000000000000000000000000000000000000000000600052603260045260246000fd5b602002602001015173ffffffffffffffffffffffffffffffffffffffff1673ffffffffffffffffffffffffffffffffffffffff16815260200190815260200160002060006109739190610bba565b808061097e90610efc565b91505061071b565b50600460008473ffffffffffffffffffffffffffffffffffffffff1673ffffffffffffffffffffffffffffffffffffffff168152602001908152602001600020600080820160006109d79190610bde565b5050505050565b600160009054906101000a900473ffffffffffffffffffffffffffffffffffffffff1681565b60008054906101000a900473ffffffffffffffffffffffffffffffffffffffff1681565b60008054906101000a900473ffffffffffffffffffffffffffffffffffffffff1673ffffffffffffffffffffffffffffffffffffffff16610a67610b01565b73ffffffffffffffffffffffffffffffffffffffff1614610abd576040517f08c379a0000000000000000000000000000000000000000000000000000000008152600401610ab490610e55565b60405180910390fd5b80600160006101000a81548173ffffffffffffffffffffffffffffffffffffffff021916908373ffffffffffffffffffffffffffffffffffffffff16021790555050565b600033905090565b828054828255906000526020600020906005028101928215610ba95760005260206000209160050282015b82811115610ba85782826000820154816000015560018201548160010155600282015481600201556003820160009054906101000a900461ffff168160030160006101000a81548161ffff021916908361ffff16021790555060048201548160040155505091600501919060050190610b34565b5b509050610bb69190610bff565b5090565b5080546000825560050290600052602060002090810190610bdb9190610bff565b50565b5080546000825590600052602060002090810190610bfc9190610c4b565b50565b5b80821115610c4757600080820160009055600182016000905560028201600090556003820160006101000a81549061ffff0219169055600482016000905550600501610c00565b5090565b5b80821115610c64576000816000905550600101610c4c565b5090565b600081359050610c7781610fc6565b92915050565b600081519050610c8c81610fdd565b92915050565b600081359050610ca181610ff4565b92915050565b600081359050610cb68161100b565b92915050565b600060208284031215610cce57600080fd5b6000610cdc84828501610c68565b91505092915050565b60008060408385031215610cf857600080fd5b6000610d0685828601610c68565b9250506020610d1785828601610c68565b9150509250929050565b60008060008060808587031215610d3757600080fd5b6000610d4587828801610c68565b9450506020610d5687828801610ca7565b9350506040610d6787828801610ca7565b9250506060610d7887828801610c92565b91505092959194509250565b600060208284031215610d9657600080fd5b6000610da484828501610c7d565b91505092915050565b610db681610ea6565b82525050565b6000610dc9601c83610e95565b9150610dd482610f74565b602082019050919050565b6000610dec601283610e95565b9150610df782610f9d565b602082019050919050565b610e0b81610ef2565b82525050565b6000602082019050610e266000830184610dad565b92915050565b6000604082019050610e416000830185610dad565b610e4e6020830184610e02565b9392505050565b60006020820190508181036000830152610e6e81610dbc565b9050919050565b60006020820190508181036000830152610e8e81610ddf565b9050919050565b600082825260208201905092915050565b6000610eb182610ed2565b9050919050565b60008115159050919050565b600061ffff82169050919050565b600073ffffffffffffffffffffffffffffffffffffffff82169050919050565b6000819050919050565b6000610f0782610ef2565b91507fffffffffffffffffffffffffffffffffffffffffffffffffffffffffffffffff821415610f3a57610f39610f45565b5b600182019050919050565b7f4e487b7100000000000000000000000000000000000000000000000000000000600052601160045260246000fd5b7f596f7520617265206e6f74206120636f6e7472616374206f776e657200000000600082015250565b7f596f7520617265206e6f7420612062616e6b0000000000000000000000000000600082015250565b610fcf81610ea6565b8114610fda57600080fd5b50565b610fe681610eb8565b8114610ff157600080fd5b50565b610ffd81610ec4565b811461100857600080fd5b50565b61101481610ef2565b811461101f57600080fd5b5056fea264697066735822122014d6988c2d9a90320bedab0bf9e1f0b2c41e6c4c3eb88dca558bac055245b9d664736f6c63430008040033",
  "immutableReferences": {},
  "source": "// \"SPDX-License-Identifier: UNLICENSED\"\npragma solidity ^0.8.0;\n\nimport \"./Context.sol\";\n\ncontract Credit is Context {\n    struct loanRecord {\n        // address borrower;\n        // address bank;\n        uint256 loanAmount;\n        uint256 pointsAmount;\n        uint256 timestamp;\n        uint16 annualInterestRate; // This value should be divided by 1000. Ex: 3% = 30 / 1000\n        uint256 loanBalance;\n    }\n\n    struct keyList {\n        address[] keys;\n        mapping (address => bool) existing;\n    }\n\n    address public _owner;\n    address public _BankLiabilityAddr;\n    C_RPToken private rp;\n\n    mapping(address => mapping(address => loanRecord[])) _loanRecords;\n    mapping(address => keyList) _bankToBorrowers;\n\n    modifier onlyOwner() {\n        require(_msgSender() == _owner, \"You are not a contract owner\");\n        _;\n    }\n\n    modifier onlyBank() {\n        require(rp._banks(_msgSender()), \"You are not a bank\");\n        _;\n    }\n\n    constructor(address RPTokenAddr) {\n        _owner = _msgSender();\n        rp = C_RPToken(RPTokenAddr);\n    }\n\n    function setBankLiabilityAddr(address addr) public onlyOwner {\n        _BankLiabilityAddr = addr;\n    }\n\n    function loan(\n        address borrower,\n        uint256 loanAmount,\n        uint256 pointsAmount,\n        uint16 annualInterestRate\n    ) public onlyBank {\n        _loanRecords[_msgSender()][borrower].push() = loanRecord(\n            loanAmount,\n            pointsAmount,\n            block.timestamp,\n            annualInterestRate,\n            loanAmount\n        );\n        if (!_bankToBorrowers[_msgSender()].existing[borrower])\n        {\n            _bankToBorrowers[_msgSender()].keys.push(borrower);\n            _bankToBorrowers[_msgSender()].existing[borrower] = true;\n        }\n        rp.deliver(borrower, pointsAmount);\n    }\n\n    function changeLoanLender(address oldBank, address newBank) public {\n        require(_msgSender() == _owner || _msgSender() == _BankLiabilityAddr);\n        address[] memory keys = _bankToBorrowers[oldBank].keys;\n        for (uint i = 0; i < keys.length; i++) {\n            _loanRecords[newBank][keys[i]] = _loanRecords[oldBank][keys[i]];\n            delete _loanRecords[oldBank][keys[i]];\n        }\n        delete _bankToBorrowers[oldBank];\n    }\n}\n\ncontract C_RPToken {\n    function _banks(address) public view returns (bool) {}\n    function deliver(address, uint256) public returns (bool) {}\n}\n",
  "sourcePath": "/Users/hc/Projects/Reward-Points-Platform/contracts/Credit.sol",
  "compiler": {
    "name": "solc",
    "version": "0.8.4+commit.c7e474f2.Emscripten.clang"
  },
  "schemaVersion": "3.4.1",
  "updatedAt": "2021-05-18T15:47:13.452Z",
  "networkType": "ethereum",
  "devdoc": {
    "kind": "dev",
    "methods": {},
    "version": 1
  },
  "userdoc": {
    "kind": "user",
    "methods": {},
    "version": 1
  }
}