{
  "contractName": "Credit",
  "abi": [
    {
      "inputs": [
        {
          "internalType": "address",
          "name": "RPTokenAddr",
          "type": "address"
        }
      ],
      "stateMutability": "nonpayable",
      "type": "constructor"
    },
    {
      "anonymous": false,
      "inputs": [
        {
          "indexed": true,
          "internalType": "address",
          "name": "borrower",
          "type": "address"
        },
        {
          "indexed": true,
          "internalType": "address",
          "name": "bank",
          "type": "address"
        },
        {
          "indexed": false,
          "internalType": "uint256",
          "name": "loanAmount",
          "type": "uint256"
        },
        {
          "indexed": false,
          "internalType": "uint256",
          "name": "pointsAmount",
          "type": "uint256"
        },
        {
          "indexed": false,
          "internalType": "uint256",
          "name": "monthlyDueDate",
          "type": "uint256"
        },
        {
          "indexed": false,
          "internalType": "uint16",
          "name": "monthN",
          "type": "uint16"
        },
        {
          "indexed": false,
          "internalType": "uint16",
          "name": "annualInterestRate",
          "type": "uint16"
        },
        {
          "indexed": false,
          "internalType": "uint256",
          "name": "loanBalance",
          "type": "uint256"
        }
      ],
      "name": "Loan",
      "type": "event"
    },
    {
      "inputs": [],
      "name": "_BankLiabilityAddr",
      "outputs": [
        {
          "internalType": "address",
          "name": "",
          "type": "address"
        }
      ],
      "stateMutability": "view",
      "type": "function"
    },
    {
      "inputs": [],
      "name": "_owner",
      "outputs": [
        {
          "internalType": "address",
          "name": "",
          "type": "address"
        }
      ],
      "stateMutability": "view",
      "type": "function"
    },
    {
      "inputs": [
        {
          "internalType": "address",
          "name": "addr",
          "type": "address"
        }
      ],
      "name": "setBankLiabilityAddr",
      "outputs": [],
      "stateMutability": "nonpayable",
      "type": "function"
    },
    {
      "inputs": [
        {
          "internalType": "address",
          "name": "borrower",
          "type": "address"
        },
        {
          "internalType": "uint256",
          "name": "loanAmount",
          "type": "uint256"
        },
        {
          "internalType": "uint256",
          "name": "pointsAmount",
          "type": "uint256"
        },
        {
          "internalType": "uint16",
          "name": "monthN",
          "type": "uint16"
        },
        {
          "internalType": "uint16",
          "name": "annualInterestRate",
          "type": "uint16"
        },
        {
          "internalType": "string",
          "name": "option",
          "type": "string"
        }
      ],
      "name": "loan",
      "outputs": [],
      "stateMutability": "nonpayable",
      "type": "function"
    },
    {
      "inputs": [
        {
          "internalType": "address",
          "name": "oldBank",
          "type": "address"
        },
        {
          "internalType": "address",
          "name": "newBank",
          "type": "address"
        }
      ],
      "name": "changeLoanLender",
      "outputs": [],
      "stateMutability": "nonpayable",
      "type": "function"
    },
    {
      "inputs": [
        {
          "internalType": "address",
          "name": "bank",
          "type": "address"
        },
        {
          "internalType": "address",
          "name": "borrower",
          "type": "address"
        },
        {
          "internalType": "uint16",
          "name": "index",
          "type": "uint16"
        }
      ],
      "name": "getLoanRecord",
      "outputs": [
        {
          "components": [
            {
              "internalType": "uint256",
              "name": "loanAmount",
              "type": "uint256"
            },
            {
              "internalType": "uint256",
              "name": "pointsAmount",
              "type": "uint256"
            },
            {
              "internalType": "uint256",
              "name": "timestamp",
              "type": "uint256"
            },
            {
              "internalType": "uint16",
              "name": "monthN",
              "type": "uint16"
            },
            {
              "internalType": "uint16",
              "name": "annualInterestRate",
              "type": "uint16"
            },
            {
              "internalType": "uint256",
              "name": "loanBalance",
              "type": "uint256"
            },
            {
              "internalType": "string",
              "name": "option",
              "type": "string"
            }
          ],
          "internalType": "struct Credit.loanRecord",
          "name": "",
          "type": "tuple"
        }
      ],
      "stateMutability": "view",
      "type": "function"
    }
  ],
  "bytecode": "0x60806040523480156200001157600080fd5b5060405162001c0638038062001c068339818101604052810190620000379190620000ed565b62000047620000ce60201b60201c565b6000806101000a81548173ffffffffffffffffffffffffffffffffffffffff021916908373ffffffffffffffffffffffffffffffffffffffff16021790555080600260006101000a81548173ffffffffffffffffffffffffffffffffffffffff021916908373ffffffffffffffffffffffffffffffffffffffff1602179055505062000167565b600033905090565b600081519050620000e7816200014d565b92915050565b6000602082840312156200010057600080fd5b60006200011084828501620000d6565b91505092915050565b600062000126826200012d565b9050919050565b600073ffffffffffffffffffffffffffffffffffffffff82169050919050565b620001588162000119565b81146200016457600080fd5b50565b611a8f80620001776000396000f3fe608060405234801561001057600080fd5b50600436106100625760003560e01c80636c44f255146100675780637a3661f814610083578063a580bb4b146100a1578063b2bdfa7b146100d1578063ccb46ac2146100ef578063e0656d601461010b575b600080fd5b610081600480360381019061007c91906112f2565b610127565b005b61008b610576565b60405161009891906115d0565b60405180910390f35b6100bb60048036038101906100b6919061132e565b61059c565b6040516100c89190611674565b60405180910390f35b6100d961082a565b6040516100e691906115d0565b60405180910390f35b6101096004803603810190610104919061137d565b61084e565b005b610125600480360381019061012091906112c9565b610dbf565b005b60008054906101000a900473ffffffffffffffffffffffffffffffffffffffff1673ffffffffffffffffffffffffffffffffffffffff16610166610e98565b73ffffffffffffffffffffffffffffffffffffffff1614806101dc5750600160009054906101000a900473ffffffffffffffffffffffffffffffffffffffff1673ffffffffffffffffffffffffffffffffffffffff166101c4610e98565b73ffffffffffffffffffffffffffffffffffffffff16145b6101e557600080fd5b6000600460008473ffffffffffffffffffffffffffffffffffffffff1673ffffffffffffffffffffffffffffffffffffffff1681526020019081526020016000206000018054806020026020016040519081016040528092919081815260200182805480156102a957602002820191906000526020600020905b8160009054906101000a900473ffffffffffffffffffffffffffffffffffffffff1673ffffffffffffffffffffffffffffffffffffffff168152602001906001019080831161025f575b5050505050905060005b815181101561051e57600360008573ffffffffffffffffffffffffffffffffffffffff1673ffffffffffffffffffffffffffffffffffffffff1681526020019081526020016000206000838381518110610336577f4e487b7100000000000000000000000000000000000000000000000000000000600052603260045260246000fd5b602002602001015173ffffffffffffffffffffffffffffffffffffffff1673ffffffffffffffffffffffffffffffffffffffff168152602001908152602001600020600360008573ffffffffffffffffffffffffffffffffffffffff1673ffffffffffffffffffffffffffffffffffffffff16815260200190815260200160002060008484815181106103f2577f4e487b7100000000000000000000000000000000000000000000000000000000600052603260045260246000fd5b602002602001015173ffffffffffffffffffffffffffffffffffffffff1673ffffffffffffffffffffffffffffffffffffffff168152602001908152602001600020908054610442929190610ea0565b50600360008573ffffffffffffffffffffffffffffffffffffffff1673ffffffffffffffffffffffffffffffffffffffff16815260200190815260200160002060008383815181106104bd577f4e487b7100000000000000000000000000000000000000000000000000000000600052603260045260246000fd5b602002602001015173ffffffffffffffffffffffffffffffffffffffff1673ffffffffffffffffffffffffffffffffffffffff168152602001908152602001600020600061050b9190610fa2565b808061051690611875565b9150506102b3565b50600460008473ffffffffffffffffffffffffffffffffffffffff1673ffffffffffffffffffffffffffffffffffffffff1681526020019081526020016000206000808201600061056f9190610fc6565b5050505050565b600160009054906101000a900473ffffffffffffffffffffffffffffffffffffffff1681565b6105a4610fe7565b8373ffffffffffffffffffffffffffffffffffffffff166105c3610e98565b73ffffffffffffffffffffffffffffffffffffffff16148061061757508273ffffffffffffffffffffffffffffffffffffffff166105ff610e98565b73ffffffffffffffffffffffffffffffffffffffff16145b610656576040517f08c379a000000000000000000000000000000000000000000000000000000000815260040161064d90611614565b60405180910390fd5b600360008573ffffffffffffffffffffffffffffffffffffffff1673ffffffffffffffffffffffffffffffffffffffff16815260200190815260200160002060008473ffffffffffffffffffffffffffffffffffffffff1673ffffffffffffffffffffffffffffffffffffffff1681526020019081526020016000208261ffff168154811061070e577f4e487b7100000000000000000000000000000000000000000000000000000000600052603260045260246000fd5b90600052602060002090600602016040518060e00160405290816000820154815260200160018201548152602001600282015481526020016003820160009054906101000a900461ffff1661ffff1661ffff1681526020016003820160029054906101000a900461ffff1661ffff1661ffff1681526020016004820154815260200160058201805461079f90611812565b80601f01602080910402602001604051908101604052809291908181526020018280546107cb90611812565b80156108185780601f106107ed57610100808354040283529160200191610818565b820191906000526020600020905b8154815290600101906020018083116107fb57829003601f168201915b50505050508152505090509392505050565b60008054906101000a900473ffffffffffffffffffffffffffffffffffffffff1681565b600260009054906101000a900473ffffffffffffffffffffffffffffffffffffffff1673ffffffffffffffffffffffffffffffffffffffff166349d407c9610894610e98565b6040518263ffffffff1660e01b81526004016108b091906115d0565b60206040518083038186803b1580156108c857600080fd5b505afa1580156108dc573d6000803e3d6000fd5b505050506040513d601f19601f82011682018060405250810190610900919061141e565b61093f576040517f08c379a000000000000000000000000000000000000000000000000000000000815260040161093690611654565b60405180910390fd5b60004290506040518060e001604052808781526020018681526020018281526020018561ffff1681526020018461ffff168152602001878152602001838152506003600061098b610e98565b73ffffffffffffffffffffffffffffffffffffffff1673ffffffffffffffffffffffffffffffffffffffff16815260200190815260200160002060008973ffffffffffffffffffffffffffffffffffffffff1673ffffffffffffffffffffffffffffffffffffffff16815260200190815260200160002060018160018154018082558091505003906000526020600020906006020160008201518160000155602082015181600101556040820151816002015560608201518160030160006101000a81548161ffff021916908361ffff16021790555060808201518160030160026101000a81548161ffff021916908361ffff16021790555060a0820151816004015560c0820151816005019080519060200190610aaa92919061102c565b5090505060046000610aba610e98565b73ffffffffffffffffffffffffffffffffffffffff1673ffffffffffffffffffffffffffffffffffffffff16815260200190815260200160002060010160008873ffffffffffffffffffffffffffffffffffffffff1673ffffffffffffffffffffffffffffffffffffffff16815260200190815260200160002060009054906101000a900460ff16610c905760046000610b52610e98565b73ffffffffffffffffffffffffffffffffffffffff1673ffffffffffffffffffffffffffffffffffffffff168152602001908152602001600020600001879080600181540180825580915050600190039060005260206000200160009091909190916101000a81548173ffffffffffffffffffffffffffffffffffffffff021916908373ffffffffffffffffffffffffffffffffffffffff160217905550600160046000610bfe610e98565b73ffffffffffffffffffffffffffffffffffffffff1673ffffffffffffffffffffffffffffffffffffffff16815260200190815260200160002060010160008973ffffffffffffffffffffffffffffffffffffffff1673ffffffffffffffffffffffffffffffffffffffff16815260200190815260200160002060006101000a81548160ff0219169083151502179055505b600260009054906101000a900473ffffffffffffffffffffffffffffffffffffffff1673ffffffffffffffffffffffffffffffffffffffff16633a537b0c88876040518363ffffffff1660e01b8152600401610ced9291906115eb565b602060405180830381600087803b158015610d0757600080fd5b505af1158015610d1b573d6000803e3d6000fd5b505050506040513d601f19601f82011682018060405250810190610d3f919061141e565b50610d48610e98565b73ffffffffffffffffffffffffffffffffffffffff168773ffffffffffffffffffffffffffffffffffffffff167f61524df0464e62268163fba3e1b510645c13c2ea497d76d5ae49988543787b9188888589898d604051610dae96959493929190611696565b60405180910390a350505050505050565b60008054906101000a900473ffffffffffffffffffffffffffffffffffffffff1673ffffffffffffffffffffffffffffffffffffffff16610dfe610e98565b73ffffffffffffffffffffffffffffffffffffffff1614610e54576040517f08c379a0000000000000000000000000000000000000000000000000000000008152600401610e4b90611634565b60405180910390fd5b80600160006101000a81548173ffffffffffffffffffffffffffffffffffffffff021916908373ffffffffffffffffffffffffffffffffffffffff16021790555050565b600033905090565b828054828255906000526020600020906006028101928215610f915760005260206000209160060282015b82811115610f905782826000820154816000015560018201548160010155600282015481600201556003820160009054906101000a900461ffff168160030160006101000a81548161ffff021916908361ffff1602179055506003820160029054906101000a900461ffff168160030160026101000a81548161ffff021916908361ffff160217905550600482015481600401556005820181600501908054610f7390611812565b610f7e9291906110b2565b50505091600601919060060190610ecb565b5b509050610f9e919061113f565b5090565b5080546000825560060290600052602060002090810190610fc3919061113f565b50565b5080546000825590600052602060002090810190610fe491906111b0565b50565b6040518060e00160405280600081526020016000815260200160008152602001600061ffff168152602001600061ffff16815260200160008152602001606081525090565b82805461103890611812565b90600052602060002090601f01602090048101928261105a57600085556110a1565b82601f1061107357805160ff19168380011785556110a1565b828001600101855582156110a1579182015b828111156110a0578251825591602001919060010190611085565b5b5090506110ae91906111b0565b5090565b8280546110be90611812565b90600052602060002090601f0160209004810192826110e0576000855561112e565b82601f106110f1578054855561112e565b8280016001018555821561112e57600052602060002091601f016020900482015b8281111561112d578254825591600101919060010190611112565b5b50905061113b91906111b0565b5090565b5b808211156111ac57600080820160009055600182016000905560028201600090556003820160006101000a81549061ffff02191690556003820160026101000a81549061ffff021916905560048201600090556005820160006111a391906111cd565b50600601611140565b5090565b5b808211156111c95760008160009055506001016111b1565b5090565b5080546111d990611812565b6000825580601f106111eb575061120a565b601f01602090049060005260206000209081019061120991906111b0565b5b50565b600061122061121b8461171c565b6116f7565b90508281526020810184848401111561123857600080fd5b6112438482856117d0565b509392505050565b60008135905061125a816119fd565b92915050565b60008151905061126f81611a14565b92915050565b600082601f83011261128657600080fd5b813561129684826020860161120d565b91505092915050565b6000813590506112ae81611a2b565b92915050565b6000813590506112c381611a42565b92915050565b6000602082840312156112db57600080fd5b60006112e98482850161124b565b91505092915050565b6000806040838503121561130557600080fd5b60006113138582860161124b565b92505060206113248582860161124b565b9150509250929050565b60008060006060848603121561134357600080fd5b60006113518682870161124b565b93505060206113628682870161124b565b92505060406113738682870161129f565b9150509250925092565b60008060008060008060c0878903121561139657600080fd5b60006113a489828a0161124b565b96505060206113b589828a016112b4565b95505060406113c689828a016112b4565b94505060606113d789828a0161129f565b93505060806113e889828a0161129f565b92505060a087013567ffffffffffffffff81111561140557600080fd5b61141189828a01611275565b9150509295509295509295565b60006020828403121561143057600080fd5b600061143e84828501611260565b91505092915050565b6114508161177a565b82525050565b60006114618261174d565b61146b8185611758565b935061147b8185602086016117df565b6114848161194b565b840191505092915050565b600061149c602c83611769565b91506114a78261195c565b604082019050919050565b60006114bf601c83611769565b91506114ca826119ab565b602082019050919050565b60006114e2601283611769565b91506114ed826119d4565b602082019050919050565b600060e08301600083015161151060008601826115b2565b50602083015161152360208601826115b2565b50604083015161153660408601826115b2565b5060608301516115496060860182611594565b50608083015161155c6080860182611594565b5060a083015161156f60a08601826115b2565b5060c083015184820360c08601526115878282611456565b9150508091505092915050565b61159d81611798565b82525050565b6115ac81611798565b82525050565b6115bb816117c6565b82525050565b6115ca816117c6565b82525050565b60006020820190506115e56000830184611447565b92915050565b60006040820190506116006000830185611447565b61160d60208301846115c1565b9392505050565b6000602082019050818103600083015261162d8161148f565b9050919050565b6000602082019050818103600083015261164d816114b2565b9050919050565b6000602082019050818103600083015261166d816114d5565b9050919050565b6000602082019050818103600083015261168e81846114f8565b905092915050565b600060c0820190506116ab60008301896115c1565b6116b860208301886115c1565b6116c560408301876115c1565b6116d260608301866115a3565b6116df60808301856115a3565b6116ec60a08301846115c1565b979650505050505050565b6000611701611712565b905061170d8282611844565b919050565b6000604051905090565b600067ffffffffffffffff8211156117375761173661191c565b5b6117408261194b565b9050602081019050919050565b600081519050919050565b600082825260208201905092915050565b600082825260208201905092915050565b6000611785826117a6565b9050919050565b60008115159050919050565b600061ffff82169050919050565b600073ffffffffffffffffffffffffffffffffffffffff82169050919050565b6000819050919050565b82818337600083830152505050565b60005b838110156117fd5780820151818401526020810190506117e2565b8381111561180c576000848401525b50505050565b6000600282049050600182168061182a57607f821691505b6020821081141561183e5761183d6118ed565b5b50919050565b61184d8261194b565b810181811067ffffffffffffffff8211171561186c5761186b61191c565b5b80604052505050565b6000611880826117c6565b91507fffffffffffffffffffffffffffffffffffffffffffffffffffffffffffffffff8214156118b3576118b26118be565b5b600182019050919050565b7f4e487b7100000000000000000000000000000000000000000000000000000000600052601160045260246000fd5b7f4e487b7100000000000000000000000000000000000000000000000000000000600052602260045260246000fd5b7f4e487b7100000000000000000000000000000000000000000000000000000000600052604160045260246000fd5b6000601f19601f8301169050919050565b7f596f752063616e206f6e6c7920676574207265636f7264732072656c6174656460008201527f20746f20796f757273656c660000000000000000000000000000000000000000602082015250565b7f596f7520617265206e6f74206120636f6e7472616374206f776e657200000000600082015250565b7f596f7520617265206e6f7420612062616e6b0000000000000000000000000000600082015250565b611a068161177a565b8114611a1157600080fd5b50565b611a1d8161178c565b8114611a2857600080fd5b50565b611a3481611798565b8114611a3f57600080fd5b50565b611a4b816117c6565b8114611a5657600080fd5b5056fea2646970667358221220ce4a8e31c45acd0956b2bc47d1f8a58220756207f636331ba57835d5621d927764736f6c63430008040033",
  "immutableReferences": {},
  "source": "// \"SPDX-License-Identifier: UNLICENSED\"\npragma solidity ^0.8.0;\n\nimport \"./Context.sol\";\n\ncontract Credit is Context {\n    struct loanRecord {\n        // address borrower;\n        // address bank;\n        uint256 loanAmount;\n        uint256 pointsAmount;\n        uint256 timestamp;\n        uint16 monthN;\n        uint16 annualInterestRate; // This value should be divided by 1000. Ex: 3% = 30 / 1000\n        uint256 loanBalance;\n        string option; // Loan case or something else\n    }\n\n    struct keyList {\n        address[] keys;\n        mapping(address => bool) existing;\n    }\n\n    address public _owner;\n    address public _BankLiabilityAddr;\n    C_RPToken private rp;\n\n    mapping(address => mapping(address => loanRecord[])) private _loanRecords;\n    mapping(address => keyList) private _bankToBorrowers;\n\n    event Loan(\n        address indexed borrower,\n        address indexed bank,\n        uint256 loanAmount,\n        uint256 pointsAmount,\n        uint256 monthlyDueDate,\n        uint16 monthN,\n        uint16 annualInterestRate,\n        uint256 loanBalance\n    );\n\n    modifier onlyOwner() {\n        require(_msgSender() == _owner, \"You are not a contract owner\");\n        _;\n    }\n\n    modifier onlyBank() {\n        require(rp._banks(_msgSender()), \"You are not a bank\");\n        _;\n    }\n\n    constructor(address RPTokenAddr) {\n        _owner = _msgSender();\n        rp = C_RPToken(RPTokenAddr);\n    }\n\n    function setBankLiabilityAddr(address addr) public onlyOwner {\n        _BankLiabilityAddr = addr;\n    }\n\n    function loan(\n        address borrower,\n        uint256 loanAmount,\n        uint256 pointsAmount,\n        uint16 monthN,\n        uint16 annualInterestRate,\n        string memory option\n    ) public onlyBank {\n        //uint256 monthlyDueDate = block.timestamp + 30 days;\n        uint256 timestamp = block.timestamp;\n        _loanRecords[_msgSender()][borrower].push() = loanRecord(\n            loanAmount,\n            pointsAmount,\n            timestamp,\n            monthN,\n            annualInterestRate,\n            loanAmount,\n            option\n        );\n        if (!_bankToBorrowers[_msgSender()].existing[borrower]) {\n            _bankToBorrowers[_msgSender()].keys.push(borrower);\n            _bankToBorrowers[_msgSender()].existing[borrower] = true;\n        }\n        rp.deliver(borrower, pointsAmount);\n\n        emit Loan(borrower, _msgSender(), loanAmount, pointsAmount, timestamp, monthN, annualInterestRate, loanAmount);\n    }\n\n    function changeLoanLender(address oldBank, address newBank) public {\n        require(_msgSender() == _owner || _msgSender() == _BankLiabilityAddr);\n        address[] memory keys = _bankToBorrowers[oldBank].keys;\n        for (uint256 i = 0; i < keys.length; i++) {\n            _loanRecords[newBank][keys[i]] = _loanRecords[oldBank][keys[i]];\n            delete _loanRecords[oldBank][keys[i]];\n        }\n        delete _bankToBorrowers[oldBank];\n    }\n\n    function getLoanRecord(address bank, address borrower, uint16 index) public view returns (loanRecord memory) {\n        require(_msgSender() == bank || _msgSender() == borrower, \"You can only get records related to yourself\");\n        return _loanRecords[bank][borrower][index];\n    }\n}\n\ncontract C_RPToken {\n    function _banks(address) public view returns (bool) {}\n\n    function deliver(address, uint256) public returns (bool) {}\n}\n",
  "sourcePath": "/Users/hc/Projects/Reward-Points-Platform/contracts/Credit.sol",
  "compiler": {
    "name": "solc",
    "version": "0.8.4+commit.c7e474f2.Emscripten.clang"
  },
  "schemaVersion": "3.4.1",
  "updatedAt": "2021-05-20T11:16:57.653Z",
  "devdoc": {
    "kind": "dev",
    "methods": {},
    "version": 1
  },
  "userdoc": {
    "kind": "user",
    "methods": {},
    "version": 1
  }
}