{
  "contractName": "Credit",
  "abi": [
    {
      "inputs": [
        {
          "internalType": "address",
          "name": "RPTokenAddr",
          "type": "address"
        }
      ],
      "stateMutability": "nonpayable",
      "type": "constructor"
    },
    {
      "anonymous": false,
      "inputs": [
        {
          "indexed": true,
          "internalType": "address",
          "name": "borrower",
          "type": "address"
        },
        {
          "indexed": true,
          "internalType": "address",
          "name": "bank",
          "type": "address"
        },
        {
          "indexed": false,
          "internalType": "uint256",
          "name": "loanAmount",
          "type": "uint256"
        },
        {
          "indexed": false,
          "internalType": "uint256",
          "name": "pointsAmount",
          "type": "uint256"
        },
        {
          "indexed": false,
          "internalType": "uint256",
          "name": "dueDate",
          "type": "uint256"
        },
        {
          "indexed": false,
          "internalType": "uint16",
          "name": "annualInterestRate",
          "type": "uint16"
        },
        {
          "indexed": false,
          "internalType": "uint256",
          "name": "loanBalance",
          "type": "uint256"
        }
      ],
      "name": "Loan",
      "type": "event"
    },
    {
      "inputs": [],
      "name": "_BankLiabilityAddr",
      "outputs": [
        {
          "internalType": "address",
          "name": "",
          "type": "address"
        }
      ],
      "stateMutability": "view",
      "type": "function",
      "constant": true
    },
    {
      "inputs": [],
      "name": "_owner",
      "outputs": [
        {
          "internalType": "address",
          "name": "",
          "type": "address"
        }
      ],
      "stateMutability": "view",
      "type": "function",
      "constant": true
    },
    {
      "inputs": [
        {
          "internalType": "address",
          "name": "addr",
          "type": "address"
        }
      ],
      "name": "setBankLiabilityAddr",
      "outputs": [],
      "stateMutability": "nonpayable",
      "type": "function"
    },
    {
      "inputs": [
        {
          "internalType": "address",
          "name": "borrower",
          "type": "address"
        },
        {
          "internalType": "uint256",
          "name": "loanAmount",
          "type": "uint256"
        },
        {
          "internalType": "uint256",
          "name": "pointsAmount",
          "type": "uint256"
        },
        {
          "internalType": "uint16",
          "name": "annualInterestRate",
          "type": "uint16"
        },
        {
          "internalType": "string",
          "name": "option",
          "type": "string"
        }
      ],
      "name": "loan",
      "outputs": [],
      "stateMutability": "nonpayable",
      "type": "function"
    },
    {
      "inputs": [
        {
          "internalType": "address",
          "name": "oldBank",
          "type": "address"
        },
        {
          "internalType": "address",
          "name": "newBank",
          "type": "address"
        }
      ],
      "name": "changeLoanLender",
      "outputs": [],
      "stateMutability": "nonpayable",
      "type": "function"
    }
  ],
  "bytecode": "0x60806040523480156200001157600080fd5b5060405162001681380380620016818339818101604052810190620000379190620000ed565b62000047620000ce60201b60201c565b6000806101000a81548173ffffffffffffffffffffffffffffffffffffffff021916908373ffffffffffffffffffffffffffffffffffffffff16021790555080600260006101000a81548173ffffffffffffffffffffffffffffffffffffffff021916908373ffffffffffffffffffffffffffffffffffffffff1602179055505062000167565b600033905090565b600081519050620000e7816200014d565b92915050565b6000602082840312156200010057600080fd5b60006200011084828501620000d6565b91505092915050565b600062000126826200012d565b9050919050565b600073ffffffffffffffffffffffffffffffffffffffff82169050919050565b620001588162000119565b81146200016457600080fd5b50565b61150a80620001776000396000f3fe608060405234801561001057600080fd5b50600436106100575760003560e01c80636c44f2551461005c5780637a3661f8146100785780638c4aa64b14610096578063b2bdfa7b146100b2578063e0656d60146100d0575b600080fd5b61007660048036038101906100719190610f7c565b6100ec565b005b61008061053b565b60405161008d91906110e3565b60405180910390f35b6100b060048036038101906100ab9190610fb8565b610561565b005b6100ba610ab0565b6040516100c791906110e3565b60405180910390f35b6100ea60048036038101906100e59190610f53565b610ad4565b005b60008054906101000a900473ffffffffffffffffffffffffffffffffffffffff1673ffffffffffffffffffffffffffffffffffffffff1661012b610bad565b73ffffffffffffffffffffffffffffffffffffffff1614806101a15750600160009054906101000a900473ffffffffffffffffffffffffffffffffffffffff1673ffffffffffffffffffffffffffffffffffffffff16610189610bad565b73ffffffffffffffffffffffffffffffffffffffff16145b6101aa57600080fd5b6000600460008473ffffffffffffffffffffffffffffffffffffffff1673ffffffffffffffffffffffffffffffffffffffff16815260200190815260200160002060000180548060200260200160405190810160405280929190818152602001828054801561026e57602002820191906000526020600020905b8160009054906101000a900473ffffffffffffffffffffffffffffffffffffffff1673ffffffffffffffffffffffffffffffffffffffff1681526020019060010190808311610224575b5050505050905060005b81518110156104e357600360008573ffffffffffffffffffffffffffffffffffffffff1673ffffffffffffffffffffffffffffffffffffffff16815260200190815260200160002060008383815181106102fb577f4e487b7100000000000000000000000000000000000000000000000000000000600052603260045260246000fd5b602002602001015173ffffffffffffffffffffffffffffffffffffffff1673ffffffffffffffffffffffffffffffffffffffff168152602001908152602001600020600360008573ffffffffffffffffffffffffffffffffffffffff1673ffffffffffffffffffffffffffffffffffffffff16815260200190815260200160002060008484815181106103b7577f4e487b7100000000000000000000000000000000000000000000000000000000600052603260045260246000fd5b602002602001015173ffffffffffffffffffffffffffffffffffffffff1673ffffffffffffffffffffffffffffffffffffffff168152602001908152602001600020908054610407929190610bb5565b50600360008573ffffffffffffffffffffffffffffffffffffffff1673ffffffffffffffffffffffffffffffffffffffff1681526020019081526020016000206000838381518110610482577f4e487b7100000000000000000000000000000000000000000000000000000000600052603260045260246000fd5b602002602001015173ffffffffffffffffffffffffffffffffffffffff1673ffffffffffffffffffffffffffffffffffffffff16815260200190815260200160002060006104d09190610c86565b80806104db9061133f565b915050610278565b50600460008473ffffffffffffffffffffffffffffffffffffffff1673ffffffffffffffffffffffffffffffffffffffff168152602001908152602001600020600080820160006105349190610caa565b5050505050565b600160009054906101000a900473ffffffffffffffffffffffffffffffffffffffff1681565b600260009054906101000a900473ffffffffffffffffffffffffffffffffffffffff1673ffffffffffffffffffffffffffffffffffffffff166349d407c96105a7610bad565b6040518263ffffffff1660e01b81526004016105c391906110e3565b60206040518083038186803b1580156105db57600080fd5b505afa1580156105ef573d6000803e3d6000fd5b505050506040513d601f19601f820116820180604052508101906106139190611047565b610652576040517f08c379a000000000000000000000000000000000000000000000000000000000815260040161064990611147565b60405180910390fd5b600062278d00426106639190611221565b90506040518060c001604052808681526020018581526020018281526020018461ffff16815260200186815260200183815250600360006106a2610bad565b73ffffffffffffffffffffffffffffffffffffffff1673ffffffffffffffffffffffffffffffffffffffff16815260200190815260200160002060008873ffffffffffffffffffffffffffffffffffffffff1673ffffffffffffffffffffffffffffffffffffffff16815260200190815260200160002060018160018154018082558091505003906000526020600020906006020160008201518160000155602082015181600101556040820151816002015560608201518160030160006101000a81548161ffff021916908361ffff1602179055506080820151816004015560a082015181600501908051906020019061079e929190610ccb565b50905050600460006107ae610bad565b73ffffffffffffffffffffffffffffffffffffffff1673ffffffffffffffffffffffffffffffffffffffff16815260200190815260200160002060010160008773ffffffffffffffffffffffffffffffffffffffff1673ffffffffffffffffffffffffffffffffffffffff16815260200190815260200160002060009054906101000a900460ff166109845760046000610846610bad565b73ffffffffffffffffffffffffffffffffffffffff1673ffffffffffffffffffffffffffffffffffffffff168152602001908152602001600020600001869080600181540180825580915050600190039060005260206000200160009091909190916101000a81548173ffffffffffffffffffffffffffffffffffffffff021916908373ffffffffffffffffffffffffffffffffffffffff1602179055506001600460006108f2610bad565b73ffffffffffffffffffffffffffffffffffffffff1673ffffffffffffffffffffffffffffffffffffffff16815260200190815260200160002060010160008873ffffffffffffffffffffffffffffffffffffffff1673ffffffffffffffffffffffffffffffffffffffff16815260200190815260200160002060006101000a81548160ff0219169083151502179055505b600260009054906101000a900473ffffffffffffffffffffffffffffffffffffffff1673ffffffffffffffffffffffffffffffffffffffff16633a537b0c87866040518363ffffffff1660e01b81526004016109e19291906110fe565b602060405180830381600087803b1580156109fb57600080fd5b505af1158015610a0f573d6000803e3d6000fd5b505050506040513d601f19601f82011682018060405250810190610a339190611047565b50610a3c610bad565b73ffffffffffffffffffffffffffffffffffffffff168673ffffffffffffffffffffffffffffffffffffffff167f115c9349458f681dcbcdecf2273f2a12714ed918302bd0f6f098eea9b3a436d2878785888b604051610aa0959493929190611167565b60405180910390a3505050505050565b60008054906101000a900473ffffffffffffffffffffffffffffffffffffffff1681565b60008054906101000a900473ffffffffffffffffffffffffffffffffffffffff1673ffffffffffffffffffffffffffffffffffffffff16610b13610bad565b73ffffffffffffffffffffffffffffffffffffffff1614610b69576040517f08c379a0000000000000000000000000000000000000000000000000000000008152600401610b6090611127565b60405180910390fd5b80600160006101000a81548173ffffffffffffffffffffffffffffffffffffffff021916908373ffffffffffffffffffffffffffffffffffffffff16021790555050565b600033905090565b828054828255906000526020600020906006028101928215610c755760005260206000209160060282015b82811115610c745782826000820154816000015560018201548160010155600282015481600201556003820160009054906101000a900461ffff168160030160006101000a81548161ffff021916908361ffff160217905550600482015481600401556005820181600501908054610c57906112dc565b610c62929190610d51565b50505091600601919060060190610be0565b5b509050610c829190610dde565b5090565b5080546000825560060290600052602060002090810190610ca79190610dde565b50565b5080546000825590600052602060002090810190610cc89190610e3a565b50565b828054610cd7906112dc565b90600052602060002090601f016020900481019282610cf95760008555610d40565b82601f10610d1257805160ff1916838001178555610d40565b82800160010185558215610d40579182015b82811115610d3f578251825591602001919060010190610d24565b5b509050610d4d9190610e3a565b5090565b828054610d5d906112dc565b90600052602060002090601f016020900481019282610d7f5760008555610dcd565b82601f10610d905780548555610dcd565b82800160010185558215610dcd57600052602060002091601f016020900482015b82811115610dcc578254825591600101919060010190610db1565b5b509050610dda9190610e3a565b5090565b5b80821115610e3657600080820160009055600182016000905560028201600090556003820160006101000a81549061ffff02191690556004820160009055600582016000610e2d9190610e57565b50600601610ddf565b5090565b5b80821115610e53576000816000905550600101610e3b565b5090565b508054610e63906112dc565b6000825580601f10610e755750610e94565b601f016020900490600052602060002090810190610e939190610e3a565b5b50565b6000610eaa610ea5846111df565b6111ba565b905082815260208101848484011115610ec257600080fd5b610ecd8482856112cd565b509392505050565b600081359050610ee481611478565b92915050565b600081519050610ef98161148f565b92915050565b600082601f830112610f1057600080fd5b8135610f20848260208601610e97565b91505092915050565b600081359050610f38816114a6565b92915050565b600081359050610f4d816114bd565b92915050565b600060208284031215610f6557600080fd5b6000610f7384828501610ed5565b91505092915050565b60008060408385031215610f8f57600080fd5b6000610f9d85828601610ed5565b9250506020610fae85828601610ed5565b9150509250929050565b600080600080600060a08688031215610fd057600080fd5b6000610fde88828901610ed5565b9550506020610fef88828901610f3e565b945050604061100088828901610f3e565b935050606061101188828901610f29565b925050608086013567ffffffffffffffff81111561102e57600080fd5b61103a88828901610eff565b9150509295509295909350565b60006020828403121561105957600080fd5b600061106784828501610eea565b91505092915050565b61107981611277565b82525050565b600061108c601c83611210565b915061109782611426565b602082019050919050565b60006110af601283611210565b91506110ba8261144f565b602082019050919050565b6110ce81611295565b82525050565b6110dd816112c3565b82525050565b60006020820190506110f86000830184611070565b92915050565b60006040820190506111136000830185611070565b61112060208301846110d4565b9392505050565b600060208201905081810360008301526111408161107f565b9050919050565b60006020820190508181036000830152611160816110a2565b9050919050565b600060a08201905061117c60008301886110d4565b61118960208301876110d4565b61119660408301866110d4565b6111a360608301856110c5565b6111b060808301846110d4565b9695505050505050565b60006111c46111d5565b90506111d0828261130e565b919050565b6000604051905090565b600067ffffffffffffffff8211156111fa576111f96113e6565b5b61120382611415565b9050602081019050919050565b600082825260208201905092915050565b600061122c826112c3565b9150611237836112c3565b9250827fffffffffffffffffffffffffffffffffffffffffffffffffffffffffffffffff0382111561126c5761126b611388565b5b828201905092915050565b6000611282826112a3565b9050919050565b60008115159050919050565b600061ffff82169050919050565b600073ffffffffffffffffffffffffffffffffffffffff82169050919050565b6000819050919050565b82818337600083830152505050565b600060028204905060018216806112f457607f821691505b60208210811415611308576113076113b7565b5b50919050565b61131782611415565b810181811067ffffffffffffffff82111715611336576113356113e6565b5b80604052505050565b600061134a826112c3565b91507fffffffffffffffffffffffffffffffffffffffffffffffffffffffffffffffff82141561137d5761137c611388565b5b600182019050919050565b7f4e487b7100000000000000000000000000000000000000000000000000000000600052601160045260246000fd5b7f4e487b7100000000000000000000000000000000000000000000000000000000600052602260045260246000fd5b7f4e487b7100000000000000000000000000000000000000000000000000000000600052604160045260246000fd5b6000601f19601f8301169050919050565b7f596f7520617265206e6f74206120636f6e7472616374206f776e657200000000600082015250565b7f596f7520617265206e6f7420612062616e6b0000000000000000000000000000600082015250565b61148181611277565b811461148c57600080fd5b50565b61149881611289565b81146114a357600080fd5b50565b6114af81611295565b81146114ba57600080fd5b50565b6114c6816112c3565b81146114d157600080fd5b5056fea26469706673582212200124391f470496ff88db3ba81a230a6f2d5df56d1679593903790ee55522037a64736f6c63430008040033",
  "immutableReferences": {},
  "source": "// \"SPDX-License-Identifier: UNLICENSED\"\npragma solidity ^0.8.0;\n\nimport \"./Context.sol\";\n\ncontract Credit is Context {\n    struct loanRecord {\n        // address borrower;\n        // address bank;\n        uint256 loanAmount;\n        uint256 pointsAmount;\n        uint256 dueDate;\n        uint16 annualInterestRate; // This value should be divided by 1000. Ex: 3% = 30 / 1000\n        uint256 loanBalance;\n        string option; // Loan case or something else\n    }\n\n    struct keyList {\n        address[] keys;\n        mapping(address => bool) existing;\n    }\n\n    address public _owner;\n    address public _BankLiabilityAddr;\n    C_RPToken private rp;\n\n    mapping(address => mapping(address => loanRecord[])) _loanRecords;\n    mapping(address => keyList) _bankToBorrowers;\n\n    event Loan(\n        address indexed borrower,\n        address indexed bank,\n        uint256 loanAmount,\n        uint256 pointsAmount,\n        uint256 dueDate,\n        uint16 annualInterestRate,\n        uint256 loanBalance\n    );\n\n    modifier onlyOwner() {\n        require(_msgSender() == _owner, \"You are not a contract owner\");\n        _;\n    }\n\n    modifier onlyBank() {\n        require(rp._banks(_msgSender()), \"You are not a bank\");\n        _;\n    }\n\n    constructor(address RPTokenAddr) {\n        _owner = _msgSender();\n        rp = C_RPToken(RPTokenAddr);\n    }\n\n    function setBankLiabilityAddr(address addr) public onlyOwner {\n        _BankLiabilityAddr = addr;\n    }\n\n    function loan(\n        address borrower,\n        uint256 loanAmount,\n        uint256 pointsAmount,\n        uint16 annualInterestRate,\n        string memory option\n    ) public onlyBank {\n        uint256 dueDate = block.timestamp + 30 days;\n        _loanRecords[_msgSender()][borrower].push() = loanRecord(\n            loanAmount,\n            pointsAmount,\n            dueDate,\n            annualInterestRate,\n            loanAmount,\n            option\n        );\n        if (!_bankToBorrowers[_msgSender()].existing[borrower]) {\n            _bankToBorrowers[_msgSender()].keys.push(borrower);\n            _bankToBorrowers[_msgSender()].existing[borrower] = true;\n        }\n        rp.deliver(borrower, pointsAmount);\n\n        emit Loan(borrower, _msgSender(), loanAmount, pointsAmount, dueDate, annualInterestRate, loanAmount);\n    }\n\n    function changeLoanLender(address oldBank, address newBank) public {\n        require(_msgSender() == _owner || _msgSender() == _BankLiabilityAddr);\n        address[] memory keys = _bankToBorrowers[oldBank].keys;\n        for (uint256 i = 0; i < keys.length; i++) {\n            _loanRecords[newBank][keys[i]] = _loanRecords[oldBank][keys[i]];\n            delete _loanRecords[oldBank][keys[i]];\n        }\n        delete _bankToBorrowers[oldBank];\n    }\n}\n\ncontract C_RPToken {\n    function _banks(address) public view returns (bool) {}\n\n    function deliver(address, uint256) public returns (bool) {}\n}\n",
  "sourcePath": "/Users/hc/Projects/Reward-Points-Platform/contracts/Credit.sol",
  "compiler": {
    "name": "solc",
    "version": "0.8.4+commit.c7e474f2.Emscripten.clang"
  },
  "schemaVersion": "3.4.1",
  "updatedAt": "2021-05-19T14:06:30.911Z",
  "networkType": "ethereum",
  "devdoc": {
    "kind": "dev",
    "methods": {},
    "version": 1
  },
  "userdoc": {
    "kind": "user",
    "methods": {},
    "version": 1
  }
}