{
  "contractName": "Credit",
  "abi": [
    {
      "inputs": [
        {
          "internalType": "address",
          "name": "RPTokenAddr",
          "type": "address"
        }
      ],
      "stateMutability": "nonpayable",
      "type": "constructor"
    },
    {
      "anonymous": false,
      "inputs": [
        {
          "indexed": true,
          "internalType": "address",
          "name": "borrower",
          "type": "address"
        },
        {
          "indexed": true,
          "internalType": "address",
          "name": "bank",
          "type": "address"
        },
        {
          "indexed": false,
          "internalType": "uint256",
          "name": "loanAmount",
          "type": "uint256"
        },
        {
          "indexed": false,
          "internalType": "uint256",
          "name": "pointsAmount",
          "type": "uint256"
        },
        {
          "indexed": false,
          "internalType": "uint256",
          "name": "timestamp",
          "type": "uint256"
        },
        {
          "indexed": false,
          "internalType": "uint16",
          "name": "monthN",
          "type": "uint16"
        },
        {
          "indexed": false,
          "internalType": "uint16",
          "name": "annualInterestRate",
          "type": "uint16"
        },
        {
          "indexed": false,
          "internalType": "uint256",
          "name": "loanBalance",
          "type": "uint256"
        }
      ],
      "name": "Loan",
      "type": "event"
    },
    {
      "anonymous": false,
      "inputs": [
        {
          "indexed": true,
          "internalType": "address",
          "name": "borrower",
          "type": "address"
        },
        {
          "indexed": true,
          "internalType": "address",
          "name": "bank",
          "type": "address"
        },
        {
          "indexed": false,
          "internalType": "uint16",
          "name": "index",
          "type": "uint16"
        },
        {
          "indexed": false,
          "internalType": "uint256",
          "name": "amount",
          "type": "uint256"
        }
      ],
      "name": "Repay",
      "type": "event"
    },
    {
      "inputs": [],
      "name": "_BankLiabilityAddr",
      "outputs": [
        {
          "internalType": "address",
          "name": "",
          "type": "address"
        }
      ],
      "stateMutability": "view",
      "type": "function"
    },
    {
      "inputs": [],
      "name": "_owner",
      "outputs": [
        {
          "internalType": "address",
          "name": "",
          "type": "address"
        }
      ],
      "stateMutability": "view",
      "type": "function"
    },
    {
      "inputs": [
        {
          "internalType": "address",
          "name": "addr",
          "type": "address"
        }
      ],
      "name": "setBankLiabilityAddr",
      "outputs": [],
      "stateMutability": "nonpayable",
      "type": "function"
    },
    {
      "inputs": [
        {
          "internalType": "address",
          "name": "borrower",
          "type": "address"
        },
        {
          "internalType": "uint256",
          "name": "loanAmount",
          "type": "uint256"
        },
        {
          "internalType": "uint256",
          "name": "pointsAmount",
          "type": "uint256"
        },
        {
          "internalType": "uint16",
          "name": "monthN",
          "type": "uint16"
        },
        {
          "internalType": "uint16",
          "name": "annualInterestRate",
          "type": "uint16"
        },
        {
          "internalType": "string",
          "name": "option",
          "type": "string"
        }
      ],
      "name": "loan",
      "outputs": [],
      "stateMutability": "nonpayable",
      "type": "function"
    },
    {
      "inputs": [
        {
          "internalType": "address",
          "name": "borrower",
          "type": "address"
        },
        {
          "internalType": "uint16",
          "name": "index",
          "type": "uint16"
        },
        {
          "internalType": "uint256",
          "name": "amount",
          "type": "uint256"
        }
      ],
      "name": "repay",
      "outputs": [],
      "stateMutability": "nonpayable",
      "type": "function"
    },
    {
      "inputs": [
        {
          "internalType": "address",
          "name": "oldBank",
          "type": "address"
        },
        {
          "internalType": "address",
          "name": "newBank",
          "type": "address"
        }
      ],
      "name": "changeLoanLender",
      "outputs": [],
      "stateMutability": "nonpayable",
      "type": "function"
    },
    {
      "inputs": [],
      "name": "getLoanBalanceOfBank",
      "outputs": [
        {
          "internalType": "uint256",
          "name": "",
          "type": "uint256"
        }
      ],
      "stateMutability": "view",
      "type": "function"
    },
    {
      "inputs": [
        {
          "internalType": "address",
          "name": "bank",
          "type": "address"
        },
        {
          "internalType": "address",
          "name": "borrower",
          "type": "address"
        },
        {
          "internalType": "uint16",
          "name": "index",
          "type": "uint16"
        }
      ],
      "name": "getLoanRecord",
      "outputs": [
        {
          "components": [
            {
              "internalType": "uint256",
              "name": "loanAmount",
              "type": "uint256"
            },
            {
              "internalType": "uint256",
              "name": "pointsAmount",
              "type": "uint256"
            },
            {
              "internalType": "uint256",
              "name": "timestamp",
              "type": "uint256"
            },
            {
              "internalType": "uint16",
              "name": "monthN",
              "type": "uint16"
            },
            {
              "internalType": "uint16",
              "name": "annualInterestRate",
              "type": "uint16"
            },
            {
              "internalType": "uint256",
              "name": "loanBalance",
              "type": "uint256"
            },
            {
              "internalType": "string",
              "name": "option",
              "type": "string"
            }
          ],
          "internalType": "struct Credit.loanRecord",
          "name": "",
          "type": "tuple"
        }
      ],
      "stateMutability": "view",
      "type": "function"
    }
  ],
  "bytecode": "0x60806040523480156200001157600080fd5b50604051620025c5380380620025c58339818101604052810190620000379190620000ed565b62000047620000ce60201b60201c565b6000806101000a81548173ffffffffffffffffffffffffffffffffffffffff021916908373ffffffffffffffffffffffffffffffffffffffff16021790555080600260006101000a81548173ffffffffffffffffffffffffffffffffffffffff021916908373ffffffffffffffffffffffffffffffffffffffff1602179055505062000167565b600033905090565b600081519050620000e7816200014d565b92915050565b6000602082840312156200010057600080fd5b60006200011084828501620000d6565b91505092915050565b600062000126826200012d565b9050919050565b600073ffffffffffffffffffffffffffffffffffffffff82169050919050565b620001588162000119565b81146200016457600080fd5b50565b61244e80620001776000396000f3fe608060405234801561001057600080fd5b50600436106100885760003560e01c8063a580bb4b1161005b578063a580bb4b14610101578063b2bdfa7b14610131578063ccb46ac21461014f578063e0656d601461016b57610088565b8063227c35011461008d5780636c44f255146100a9578063781445e8146100c55780637a3661f8146100e3575b600080fd5b6100a760048036038101906100a29190611bb3565b610187565b005b6100c360048036038101906100be9190611b28565b6104e5565b005b6100cd610934565b6040516100da9190611f87565b60405180910390f35b6100eb610dac565b6040516100f89190611e78565b60405180910390f35b61011b60048036038101906101169190611b64565b610dd2565b6040516101289190611f3c565b60405180910390f35b610139611060565b6040516101469190611e78565b60405180910390f35b61016960048036038101906101649190611c02565b611084565b005b61018560048036038101906101809190611aff565b6115f5565b005b600260009054906101000a900473ffffffffffffffffffffffffffffffffffffffff1673ffffffffffffffffffffffffffffffffffffffff166349d407c96101cd6116ce565b6040518263ffffffff1660e01b81526004016101e99190611e78565b60206040518083038186803b15801561020157600080fd5b505afa158015610215573d6000803e3d6000fd5b505050506040513d601f19601f820116820180604052508101906102399190611ca3565b610278576040517f08c379a000000000000000000000000000000000000000000000000000000000815260040161026f90611efc565b60405180910390fd5b80600360006102856116ce565b73ffffffffffffffffffffffffffffffffffffffff1673ffffffffffffffffffffffffffffffffffffffff16815260200190815260200160002060008573ffffffffffffffffffffffffffffffffffffffff1673ffffffffffffffffffffffffffffffffffffffff1681526020019081526020016000208361ffff1681548110610338577f4e487b7100000000000000000000000000000000000000000000000000000000600052603260045260246000fd5b906000526020600020906006020160040154101561038b576040517f08c379a000000000000000000000000000000000000000000000000000000000815260040161038290611f1c565b60405180910390fd5b80600360006103986116ce565b73ffffffffffffffffffffffffffffffffffffffff1673ffffffffffffffffffffffffffffffffffffffff16815260200190815260200160002060008573ffffffffffffffffffffffffffffffffffffffff1673ffffffffffffffffffffffffffffffffffffffff1681526020019081526020016000208361ffff168154811061044b577f4e487b7100000000000000000000000000000000000000000000000000000000600052603260045260246000fd5b9060005260206000209060060201600401600082825461046b91906120dc565b9250508190555061047a6116ce565b73ffffffffffffffffffffffffffffffffffffffff168373ffffffffffffffffffffffffffffffffffffffff167fdcc1c192d2b06c55ab569f8495ac5f109275855bcf259069d55816718bba8a9384846040516104d8929190611f5e565b60405180910390a3505050565b60008054906101000a900473ffffffffffffffffffffffffffffffffffffffff1673ffffffffffffffffffffffffffffffffffffffff166105246116ce565b73ffffffffffffffffffffffffffffffffffffffff16148061059a5750600160009054906101000a900473ffffffffffffffffffffffffffffffffffffffff1673ffffffffffffffffffffffffffffffffffffffff166105826116ce565b73ffffffffffffffffffffffffffffffffffffffff16145b6105a357600080fd5b6000600460008473ffffffffffffffffffffffffffffffffffffffff1673ffffffffffffffffffffffffffffffffffffffff16815260200190815260200160002060000180548060200260200160405190810160405280929190818152602001828054801561066757602002820191906000526020600020905b8160009054906101000a900473ffffffffffffffffffffffffffffffffffffffff1673ffffffffffffffffffffffffffffffffffffffff168152602001906001019080831161061d575b5050505050905060005b81518110156108dc57600360008573ffffffffffffffffffffffffffffffffffffffff1673ffffffffffffffffffffffffffffffffffffffff16815260200190815260200160002060008383815181106106f4577f4e487b7100000000000000000000000000000000000000000000000000000000600052603260045260246000fd5b602002602001015173ffffffffffffffffffffffffffffffffffffffff1673ffffffffffffffffffffffffffffffffffffffff168152602001908152602001600020600360008573ffffffffffffffffffffffffffffffffffffffff1673ffffffffffffffffffffffffffffffffffffffff16815260200190815260200160002060008484815181106107b0577f4e487b7100000000000000000000000000000000000000000000000000000000600052603260045260246000fd5b602002602001015173ffffffffffffffffffffffffffffffffffffffff1673ffffffffffffffffffffffffffffffffffffffff1681526020019081526020016000209080546108009291906116d6565b50600360008573ffffffffffffffffffffffffffffffffffffffff1673ffffffffffffffffffffffffffffffffffffffff168152602001908152602001600020600083838151811061087b577f4e487b7100000000000000000000000000000000000000000000000000000000600052603260045260246000fd5b602002602001015173ffffffffffffffffffffffffffffffffffffffff1673ffffffffffffffffffffffffffffffffffffffff16815260200190815260200160002060006108c991906117d8565b80806108d49061220b565b915050610671565b50600460008473ffffffffffffffffffffffffffffffffffffffff1673ffffffffffffffffffffffffffffffffffffffff1681526020019081526020016000206000808201600061092d91906117fc565b5050505050565b6000600260009054906101000a900473ffffffffffffffffffffffffffffffffffffffff1673ffffffffffffffffffffffffffffffffffffffff166349d407c961097c6116ce565b6040518263ffffffff1660e01b81526004016109989190611e78565b60206040518083038186803b1580156109b057600080fd5b505afa1580156109c4573d6000803e3d6000fd5b505050506040513d601f19601f820116820180604052508101906109e89190611ca3565b610a27576040517f08c379a0000000000000000000000000000000000000000000000000000000008152600401610a1e90611efc565b60405180910390fd5b60008060046000610a366116ce565b73ffffffffffffffffffffffffffffffffffffffff1673ffffffffffffffffffffffffffffffffffffffff168152602001908152602001600020600001805480602002602001604051908101604052809291908181526020018280548015610af357602002820191906000526020600020905b8160009054906101000a900473ffffffffffffffffffffffffffffffffffffffff1673ffffffffffffffffffffffffffffffffffffffff1681526020019060010190808311610aa9575b5050505050905060005b8151811015610da357600060036000610b146116ce565b73ffffffffffffffffffffffffffffffffffffffff1673ffffffffffffffffffffffffffffffffffffffff1681526020019081526020016000206000848481518110610b89577f4e487b7100000000000000000000000000000000000000000000000000000000600052603260045260246000fd5b602002602001015173ffffffffffffffffffffffffffffffffffffffff1673ffffffffffffffffffffffffffffffffffffffff168152602001908152602001600020805480602002602001604051908101604052809291908181526020016000905b82821015610d1757838290600052602060002090600602016040518060e00160405290816000820154815260200160018201548152602001600282015481526020016003820160009054906101000a900461ffff1661ffff1661ffff1681526020016003820160029054906101000a900461ffff1661ffff1661ffff16815260200160048201548152602001600582018054610c86906121a8565b80601f0160208091040260200160405190810160405280929190818152602001828054610cb2906121a8565b8015610cff5780601f10610cd457610100808354040283529160200191610cff565b820191906000526020600020905b815481529060010190602001808311610ce257829003601f168201915b50505050508152505081526020019060010190610beb565b50505050905060005b8151811015610d8e57818181518110610d62577f4e487b7100000000000000000000000000000000000000000000000000000000600052603260045260246000fd5b602002602001015160a0015185610d799190612086565b94508080610d869061220b565b915050610d20565b50508080610d9b9061220b565b915050610afd565b50819250505090565b600160009054906101000a900473ffffffffffffffffffffffffffffffffffffffff1681565b610dda61181d565b8373ffffffffffffffffffffffffffffffffffffffff16610df96116ce565b73ffffffffffffffffffffffffffffffffffffffff161480610e4d57508273ffffffffffffffffffffffffffffffffffffffff16610e356116ce565b73ffffffffffffffffffffffffffffffffffffffff16145b610e8c576040517f08c379a0000000000000000000000000000000000000000000000000000000008152600401610e8390611ebc565b60405180910390fd5b600360008573ffffffffffffffffffffffffffffffffffffffff1673ffffffffffffffffffffffffffffffffffffffff16815260200190815260200160002060008473ffffffffffffffffffffffffffffffffffffffff1673ffffffffffffffffffffffffffffffffffffffff1681526020019081526020016000208261ffff1681548110610f44577f4e487b7100000000000000000000000000000000000000000000000000000000600052603260045260246000fd5b90600052602060002090600602016040518060e00160405290816000820154815260200160018201548152602001600282015481526020016003820160009054906101000a900461ffff1661ffff1661ffff1681526020016003820160029054906101000a900461ffff1661ffff1661ffff16815260200160048201548152602001600582018054610fd5906121a8565b80601f0160208091040260200160405190810160405280929190818152602001828054611001906121a8565b801561104e5780601f106110235761010080835404028352916020019161104e565b820191906000526020600020905b81548152906001019060200180831161103157829003601f168201915b50505050508152505090509392505050565b60008054906101000a900473ffffffffffffffffffffffffffffffffffffffff1681565b600260009054906101000a900473ffffffffffffffffffffffffffffffffffffffff1673ffffffffffffffffffffffffffffffffffffffff166349d407c96110ca6116ce565b6040518263ffffffff1660e01b81526004016110e69190611e78565b60206040518083038186803b1580156110fe57600080fd5b505afa158015611112573d6000803e3d6000fd5b505050506040513d601f19601f820116820180604052508101906111369190611ca3565b611175576040517f08c379a000000000000000000000000000000000000000000000000000000000815260040161116c90611efc565b60405180910390fd5b60004290506040518060e001604052808781526020018681526020018281526020018561ffff1681526020018461ffff16815260200187815260200183815250600360006111c16116ce565b73ffffffffffffffffffffffffffffffffffffffff1673ffffffffffffffffffffffffffffffffffffffff16815260200190815260200160002060008973ffffffffffffffffffffffffffffffffffffffff1673ffffffffffffffffffffffffffffffffffffffff16815260200190815260200160002060018160018154018082558091505003906000526020600020906006020160008201518160000155602082015181600101556040820151816002015560608201518160030160006101000a81548161ffff021916908361ffff16021790555060808201518160030160026101000a81548161ffff021916908361ffff16021790555060a0820151816004015560c08201518160050190805190602001906112e0929190611862565b50905050600460006112f06116ce565b73ffffffffffffffffffffffffffffffffffffffff1673ffffffffffffffffffffffffffffffffffffffff16815260200190815260200160002060010160008873ffffffffffffffffffffffffffffffffffffffff1673ffffffffffffffffffffffffffffffffffffffff16815260200190815260200160002060009054906101000a900460ff166114c657600460006113886116ce565b73ffffffffffffffffffffffffffffffffffffffff1673ffffffffffffffffffffffffffffffffffffffff168152602001908152602001600020600001879080600181540180825580915050600190039060005260206000200160009091909190916101000a81548173ffffffffffffffffffffffffffffffffffffffff021916908373ffffffffffffffffffffffffffffffffffffffff1602179055506001600460006114346116ce565b73ffffffffffffffffffffffffffffffffffffffff1673ffffffffffffffffffffffffffffffffffffffff16815260200190815260200160002060010160008973ffffffffffffffffffffffffffffffffffffffff1673ffffffffffffffffffffffffffffffffffffffff16815260200190815260200160002060006101000a81548160ff0219169083151502179055505b600260009054906101000a900473ffffffffffffffffffffffffffffffffffffffff1673ffffffffffffffffffffffffffffffffffffffff16633a537b0c88876040518363ffffffff1660e01b8152600401611523929190611e93565b602060405180830381600087803b15801561153d57600080fd5b505af1158015611551573d6000803e3d6000fd5b505050506040513d601f19601f820116820180604052508101906115759190611ca3565b5061157e6116ce565b73ffffffffffffffffffffffffffffffffffffffff168773ffffffffffffffffffffffffffffffffffffffff167f61524df0464e62268163fba3e1b510645c13c2ea497d76d5ae49988543787b9188888589898d6040516115e496959493929190611fa2565b60405180910390a350505050505050565b60008054906101000a900473ffffffffffffffffffffffffffffffffffffffff1673ffffffffffffffffffffffffffffffffffffffff166116346116ce565b73ffffffffffffffffffffffffffffffffffffffff161461168a576040517f08c379a000000000000000000000000000000000000000000000000000000000815260040161168190611edc565b60405180910390fd5b80600160006101000a81548173ffffffffffffffffffffffffffffffffffffffff021916908373ffffffffffffffffffffffffffffffffffffffff16021790555050565b600033905090565b8280548282559060005260206000209060060281019282156117c75760005260206000209160060282015b828111156117c65782826000820154816000015560018201548160010155600282015481600201556003820160009054906101000a900461ffff168160030160006101000a81548161ffff021916908361ffff1602179055506003820160029054906101000a900461ffff168160030160026101000a81548161ffff021916908361ffff1602179055506004820154816004015560058201816005019080546117a9906121a8565b6117b49291906118e8565b50505091600601919060060190611701565b5b5090506117d49190611975565b5090565b50805460008255600602906000526020600020908101906117f99190611975565b50565b508054600082559060005260206000209081019061181a91906119e6565b50565b6040518060e00160405280600081526020016000815260200160008152602001600061ffff168152602001600061ffff16815260200160008152602001606081525090565b82805461186e906121a8565b90600052602060002090601f01602090048101928261189057600085556118d7565b82601f106118a957805160ff19168380011785556118d7565b828001600101855582156118d7579182015b828111156118d65782518255916020019190600101906118bb565b5b5090506118e491906119e6565b5090565b8280546118f4906121a8565b90600052602060002090601f0160209004810192826119165760008555611964565b82601f106119275780548555611964565b8280016001018555821561196457600052602060002091601f016020900482015b82811115611963578254825591600101919060010190611948565b5b50905061197191906119e6565b5090565b5b808211156119e257600080820160009055600182016000905560028201600090556003820160006101000a81549061ffff02191690556003820160026101000a81549061ffff021916905560048201600090556005820160006119d99190611a03565b50600601611976565b5090565b5b808211156119ff5760008160009055506001016119e7565b5090565b508054611a0f906121a8565b6000825580601f10611a215750611a40565b601f016020900490600052602060002090810190611a3f91906119e6565b5b50565b6000611a56611a5184612028565b612003565b905082815260208101848484011115611a6e57600080fd5b611a79848285612166565b509392505050565b600081359050611a90816123bc565b92915050565b600081519050611aa5816123d3565b92915050565b600082601f830112611abc57600080fd5b8135611acc848260208601611a43565b91505092915050565b600081359050611ae4816123ea565b92915050565b600081359050611af981612401565b92915050565b600060208284031215611b1157600080fd5b6000611b1f84828501611a81565b91505092915050565b60008060408385031215611b3b57600080fd5b6000611b4985828601611a81565b9250506020611b5a85828601611a81565b9150509250929050565b600080600060608486031215611b7957600080fd5b6000611b8786828701611a81565b9350506020611b9886828701611a81565b9250506040611ba986828701611ad5565b9150509250925092565b600080600060608486031215611bc857600080fd5b6000611bd686828701611a81565b9350506020611be786828701611ad5565b9250506040611bf886828701611aea565b9150509250925092565b60008060008060008060c08789031215611c1b57600080fd5b6000611c2989828a01611a81565b9650506020611c3a89828a01611aea565b9550506040611c4b89828a01611aea565b9450506060611c5c89828a01611ad5565b9350506080611c6d89828a01611ad5565b92505060a087013567ffffffffffffffff811115611c8a57600080fd5b611c9689828a01611aab565b9150509295509295509295565b600060208284031215611cb557600080fd5b6000611cc384828501611a96565b91505092915050565b611cd581612110565b82525050565b6000611ce682612059565b611cf08185612064565b9350611d00818560208601612175565b611d09816122e1565b840191505092915050565b6000611d21602c83612075565b9150611d2c826122f2565b604082019050919050565b6000611d44601c83612075565b9150611d4f82612341565b602082019050919050565b6000611d67601283612075565b9150611d728261236a565b602082019050919050565b6000611d8a601483612075565b9150611d9582612393565b602082019050919050565b600060e083016000830151611db86000860182611e5a565b506020830151611dcb6020860182611e5a565b506040830151611dde6040860182611e5a565b506060830151611df16060860182611e3c565b506080830151611e046080860182611e3c565b5060a0830151611e1760a0860182611e5a565b5060c083015184820360c0860152611e2f8282611cdb565b9150508091505092915050565b611e458161212e565b82525050565b611e548161212e565b82525050565b611e638161215c565b82525050565b611e728161215c565b82525050565b6000602082019050611e8d6000830184611ccc565b92915050565b6000604082019050611ea86000830185611ccc565b611eb56020830184611e69565b9392505050565b60006020820190508181036000830152611ed581611d14565b9050919050565b60006020820190508181036000830152611ef581611d37565b9050919050565b60006020820190508181036000830152611f1581611d5a565b9050919050565b60006020820190508181036000830152611f3581611d7d565b9050919050565b60006020820190508181036000830152611f568184611da0565b905092915050565b6000604082019050611f736000830185611e4b565b611f806020830184611e69565b9392505050565b6000602082019050611f9c6000830184611e69565b92915050565b600060c082019050611fb76000830189611e69565b611fc46020830188611e69565b611fd16040830187611e69565b611fde6060830186611e4b565b611feb6080830185611e4b565b611ff860a0830184611e69565b979650505050505050565b600061200d61201e565b905061201982826121da565b919050565b6000604051905090565b600067ffffffffffffffff821115612043576120426122b2565b5b61204c826122e1565b9050602081019050919050565b600081519050919050565b600082825260208201905092915050565b600082825260208201905092915050565b60006120918261215c565b915061209c8361215c565b9250827fffffffffffffffffffffffffffffffffffffffffffffffffffffffffffffffff038211156120d1576120d0612254565b5b828201905092915050565b60006120e78261215c565b91506120f28361215c565b92508282101561210557612104612254565b5b828203905092915050565b600061211b8261213c565b9050919050565b60008115159050919050565b600061ffff82169050919050565b600073ffffffffffffffffffffffffffffffffffffffff82169050919050565b6000819050919050565b82818337600083830152505050565b60005b83811015612193578082015181840152602081019050612178565b838111156121a2576000848401525b50505050565b600060028204905060018216806121c057607f821691505b602082108114156121d4576121d3612283565b5b50919050565b6121e3826122e1565b810181811067ffffffffffffffff82111715612202576122016122b2565b5b80604052505050565b60006122168261215c565b91507fffffffffffffffffffffffffffffffffffffffffffffffffffffffffffffffff82141561224957612248612254565b5b600182019050919050565b7f4e487b7100000000000000000000000000000000000000000000000000000000600052601160045260246000fd5b7f4e487b7100000000000000000000000000000000000000000000000000000000600052602260045260246000fd5b7f4e487b7100000000000000000000000000000000000000000000000000000000600052604160045260246000fd5b6000601f19601f8301169050919050565b7f596f752063616e206f6e6c7920676574207265636f7264732072656c6174656460008201527f20746f20796f757273656c660000000000000000000000000000000000000000602082015250565b7f596f7520617265206e6f74206120636f6e7472616374206f776e657200000000600082015250565b7f596f7520617265206e6f7420612062616e6b0000000000000000000000000000600082015250565b7f526570617920746f6f206d756368206d6f6e6579000000000000000000000000600082015250565b6123c581612110565b81146123d057600080fd5b50565b6123dc81612122565b81146123e757600080fd5b50565b6123f38161212e565b81146123fe57600080fd5b50565b61240a8161215c565b811461241557600080fd5b5056fea2646970667358221220a933789de951f9c430762b8dbbb290d7cf16858adbd4cb722305831f800268ed64736f6c63430008040033",
  "immutableReferences": {},
  "source": "// \"SPDX-License-Identifier: UNLICENSED\"\n\npragma solidity ^0.8.0;\n\nimport \"./Context.sol\";\n\ncontract Credit is Context {\n    struct loanRecord {\n        // address borrower;\n        // address bank;\n        uint256 loanAmount;\n        uint256 pointsAmount;\n        uint256 timestamp;\n        uint16 monthN;\n        uint16 annualInterestRate; // This value should be divided by 1000. Ex: 3% = 30 / 1000\n        uint256 loanBalance;\n        string option; // Loan case or something else\n    }\n\n    struct keyList {\n        address[] keys;\n        mapping(address => bool) existing;\n    }\n\n    address public _owner;\n    address public _BankLiabilityAddr;\n    C_RPToken private _rp;\n\n    mapping(address => mapping(address => loanRecord[])) private _loanRecords;\n    mapping(address => keyList) private _bankToBorrowers;\n\n    event Loan(\n        address indexed borrower,\n        address indexed bank,\n        uint256 loanAmount,\n        uint256 pointsAmount,\n        uint256 timestamp,\n        uint16 monthN,\n        uint16 annualInterestRate,\n        uint256 loanBalance\n    );\n\n    event Repay(address indexed borrower, address indexed bank, uint16 index, uint256 amount);\n\n    modifier onlyOwner() {\n        require(_msgSender() == _owner, \"You are not a contract owner\");\n        _;\n    }\n\n    modifier onlyBank() {\n        require(_rp._banks(_msgSender()), \"You are not a bank\");\n        _;\n    }\n\n    constructor(address RPTokenAddr) {\n        _owner = _msgSender();\n        _rp = C_RPToken(RPTokenAddr);\n    }\n\n    function setBankLiabilityAddr(address addr) public onlyOwner {\n        _BankLiabilityAddr = addr;\n    }\n\n    function loan(\n        address borrower,\n        uint256 loanAmount,\n        uint256 pointsAmount,\n        uint16 monthN,\n        uint16 annualInterestRate,\n        string memory option\n    ) public onlyBank {\n        //uint256 monthlyDueDate = block.timestamp + 30 days;\n        uint256 timestamp = block.timestamp;\n        _loanRecords[_msgSender()][borrower].push() = loanRecord(\n            loanAmount,\n            pointsAmount,\n            timestamp,\n            monthN,\n            annualInterestRate,\n            loanAmount,\n            option\n        );\n        if (!_bankToBorrowers[_msgSender()].existing[borrower]) {\n            _bankToBorrowers[_msgSender()].keys.push(borrower);\n            _bankToBorrowers[_msgSender()].existing[borrower] = true;\n        }\n        _rp.deliver(borrower, pointsAmount);\n\n        emit Loan(borrower, _msgSender(), loanAmount, pointsAmount, timestamp, monthN, annualInterestRate, loanAmount);\n    }\n\n    function repay(address borrower, uint16 index, uint256 amount) public onlyBank {\n        require(_loanRecords[_msgSender()][borrower][index].loanBalance >= amount, \"Repay too much money\");\n        _loanRecords[_msgSender()][borrower][index].loanBalance -= amount;\n\n        emit Repay(borrower, _msgSender(), index, amount);\n    }\n\n    function changeLoanLender(address oldBank, address newBank) public {\n        require(_msgSender() == _owner || _msgSender() == _BankLiabilityAddr);\n        address[] memory keys = _bankToBorrowers[oldBank].keys;\n        for (uint256 i = 0; i < keys.length; i++) {\n            _loanRecords[newBank][keys[i]] = _loanRecords[oldBank][keys[i]];\n            delete _loanRecords[oldBank][keys[i]];\n        }\n        delete _bankToBorrowers[oldBank];\n    }\n\n    function getLoanBalanceOfBank() public view onlyBank returns (uint256) {\n        uint256 totalLoanBalance;\n        address[] memory keys = _bankToBorrowers[_msgSender()].keys;\n        for (uint256 i = 0; i < keys.length; i++) {\n            loanRecord[] memory loanRecords = _loanRecords[_msgSender()][keys[i]];\n            for (uint256 j = 0; j < loanRecords.length; j++) {\n                totalLoanBalance += loanRecords[j].loanBalance;\n            }\n        }\n        return totalLoanBalance;\n    }\n\n    function getLoanRecord(address bank, address borrower, uint16 index) public view returns (loanRecord memory) {\n        require(_msgSender() == bank || _msgSender() == borrower, \"You can only get records related to yourself\");\n        return _loanRecords[bank][borrower][index];\n    }\n}\n\ncontract C_RPToken {\n    function _banks(address) public view returns (bool) {}\n\n    function deliver(address, uint256) public returns (bool) {}\n}\n",
  "sourcePath": "/Users/hc/Projects/Reward-Points-Platform/contracts/Credit.sol",
  "compiler": {
    "name": "solc",
    "version": "0.8.4+commit.c7e474f2.Emscripten.clang"
  },
  "schemaVersion": "3.4.1",
  "updatedAt": "2021-05-21T05:36:48.513Z",
  "devdoc": {
    "kind": "dev",
    "methods": {},
    "version": 1
  },
  "userdoc": {
    "kind": "user",
    "methods": {},
    "version": 1
  }
}