{
  "contractName": "MiniCredit",
  "abi": [
    {
      "inputs": [
        {
          "internalType": "address",
          "name": "",
          "type": "address"
        },
        {
          "internalType": "address",
          "name": "",
          "type": "address"
        }
      ],
      "name": "changeLoanLender",
      "outputs": [],
      "stateMutability": "nonpayable",
      "type": "function"
    }
  ],
  "bytecode": "0x608060405234801561001057600080fd5b5061010d806100206000396000f3fe6080604052348015600f57600080fd5b506004361060285760003560e01c80636c44f25514602d575b600080fd5b60436004803603810190603f9190605c565b6045565b005b5050565b60008135905060568160c3565b92915050565b60008060408385031215606e57600080fd5b6000607a858286016049565b92505060206089858286016049565b9150509250929050565b6000609c8260a3565b9050919050565b600073ffffffffffffffffffffffffffffffffffffffff82169050919050565b60ca816093565b811460d457600080fd5b5056fea26469706673582212204e426f866b215571aee50e703ce9849a07919adf8d982af222705b323d94927a64736f6c63430008040033",
  "immutableReferences": {},
  "source": "// \"SPDX-License-Identifier: UNLICENSED\"\npragma solidity ^0.8.0;\n\nimport \"./Context.sol\";\n\ncontract BankLiability is Context {\n    address public _owner;\n    address public _RPToken;\n    MiniRPToken private rp;\n    MiniCredit private credit;\n    int256 public _totalLiability;\n\n    mapping(address => int256) public _liabilities;\n    mapping(address => mapping(address => uint256)) _confirmRemittance;\n\n    event TransferRequest(\n        address indexed sender,\n        address indexed recipient,\n        uint256 amount\n    );\n    event RevokeRequest(address indexed sender, address indexed recipient);\n    event Accept(\n        address indexed sender,\n        address indexed recipient,\n        uint256 amount\n    );\n\n    modifier onlyOwner() {\n        require(_msgSender() == _owner);\n        _;\n    }\n\n    modifier onlyBank() {\n        require(rp._banks(_msgSender()), \"You are not a bank\");\n        _;\n    }\n\n    constructor(address RPTokenAddr) {\n        _owner = _msgSender();\n        _RPToken = RPTokenAddr;\n        rp = MiniRPToken(RPTokenAddr);\n    }\n\n    function loadCredit(address addr) public onlyOwner {\n        credit = MiniCredit(addr);\n    }\n\n    function transferRequest(address recipient, uint256 amount)\n        public\n        onlyBank\n        returns (bool)\n    {\n        require(\n            rp._banks(recipient),\n            \"Liability: You can only request to transfer liability to banks\"\n        );\n        require(amount != 0, \"Liability: transfer zero amount\");\n        require(\n            _confirmRemittance[_msgSender()][recipient] == 0,\n            \"Liability: You cannot send multiple requests to the same bank\"\n        );\n        _confirmRemittance[_msgSender()][recipient] = amount;\n\n        emit TransferRequest(_msgSender(), recipient, amount);\n        return true;\n    }\n\n    function revokeRequest(address recipient) public onlyBank returns (bool) {\n        require(\n            rp._banks(recipient),\n            \"Liability: You can only revoke request to banks\"\n        );\n        require(\n            _confirmRemittance[_msgSender()][recipient] > 0,\n            \"Liability: You cannot revoke requests before sending requests\"\n        );\n        _confirmRemittance[_msgSender()][recipient] = 0;\n\n        emit RevokeRequest(_msgSender(), recipient);\n        return true;\n    }\n\n    function accept(address sender) public onlyBank returns (bool) {\n        require(\n            rp._banks(sender),\n            \"Liability: You can only accept the request from banks\"\n        );\n        uint256 amount = _confirmRemittance[sender][_msgSender()];\n        require(\n            amount != 0,\n            \"Liability: The sender didn't send the transfer request\"\n        );\n        _liabilities[sender] += int256(amount);\n        _liabilities[_msgSender()] -= int256(amount);\n        delete _confirmRemittance[sender][_msgSender()];\n\n        credit.changeLoanLender(sender, _msgSender());\n        \n        emit Accept(_msgSender(), sender, amount);\n        return true;\n    }\n\n    function increaseLiability(address addr, uint256 amount) public {\n        require(_msgSender() == _owner || _msgSender() == _RPToken);\n        require(amount != 0, \"Liability: increase zero amount\");\n        _liabilities[addr] -= int256(amount);\n        _totalLiability -= int256(amount);\n    }\n\n    function decreaseLiability(address addr, uint256 amount) public {\n        require(_msgSender() == _owner || _msgSender() == _RPToken);\n        require(amount != 0, \"Liability: decrease zero amount\");\n        _liabilities[addr] += int256(amount);\n        _totalLiability += int256(amount);\n    }\n}\n\ncontract MiniRPToken {\n    function _banks(address) public view returns (bool) {}\n}\n\ncontract MiniCredit {\n    function changeLoanLender(address, address) public {}\n}\n",
  "sourcePath": "/Users/hc/Projects/Reward-Points-Platform/contracts/BankLiability.sol",
  "compiler": {
    "name": "solc",
    "version": "0.8.4+commit.c7e474f2.Emscripten.clang"
  },
  "schemaVersion": "3.4.1",
  "updatedAt": "2021-05-18T15:23:46.806Z",
  "devdoc": {
    "kind": "dev",
    "methods": {},
    "version": 1
  },
  "userdoc": {
    "kind": "user",
    "methods": {},
    "version": 1
  }
}