{
  "contractName": "PE_RPToken",
  "abi": [
    {
      "inputs": [
        {
          "internalType": "address",
          "name": "",
          "type": "address"
        }
      ],
      "name": "_banks",
      "outputs": [
        {
          "internalType": "bool",
          "name": "",
          "type": "bool"
        }
      ],
      "stateMutability": "view",
      "type": "function"
    }
  ],
  "bytecode": "0x608060405234801561001057600080fd5b5061015a806100206000396000f3fe608060405234801561001057600080fd5b506004361061002b5760003560e01c806349d407c914610030575b600080fd5b61004a6004803603810190610045919061007c565b610060565b60405161005791906100b4565b60405180910390f35b6000919050565b6000813590506100768161010d565b92915050565b60006020828403121561008e57600080fd5b600061009c84828501610067565b91505092915050565b6100ae816100e1565b82525050565b60006020820190506100c960008301846100a5565b92915050565b60006100da826100ed565b9050919050565b60008115159050919050565b600073ffffffffffffffffffffffffffffffffffffffff82169050919050565b610116816100cf565b811461012157600080fd5b5056fea2646970667358221220f610704d608904fdfc2af81c54edf5eb4706725ac7578403c47441ba6a39812464736f6c63430008040033",
  "immutableReferences": {},
  "source": "// \"SPDX-License-Identifier: UNLICENSED\"\n\npragma solidity ^0.8.0;\n\nimport \"./Context.sol\";\n\ncontract PointsExchange is Context {\n    PE_RPToken private _rp;\n    mapping(address => string) _exchangeRates; // Existing points issuer's address => 100 \n                                               // means 100 xx points -> 1 rp \n\n    event ChangeExchangeRate(address bank, string rate);\n\n    modifier onlyBank() {\n        require(_rp._banks(_msgSender()), \"You are not a bank\");\n        _;\n    }\n\n    constructor(address RPTokenAddr) {\n        _rp = PE_RPToken(RPTokenAddr);\n    }\n\n    function changeExchangeRate(string memory rate) public onlyBank {\n        _exchangeRates[_msgSender()] = rate;\n        emit ChangeExchangeRate(_msgSender(), rate);\n    }\n}\n\ncontract PE_RPToken {\n    function _banks(address) public view returns (bool) {}\n}\n",
  "sourcePath": "/Users/hc/Projects/Reward-Points-Platform/contracts/PointsExchange.sol",
  "compiler": {
    "name": "solc",
    "version": "0.8.4+commit.c7e474f2.Emscripten.clang"
  },
  "schemaVersion": "3.4.1",
  "updatedAt": "2021-05-21T05:36:48.519Z",
  "devdoc": {
    "kind": "dev",
    "methods": {},
    "version": 1
  },
  "userdoc": {
    "kind": "user",
    "methods": {},
    "version": 1
  }
}