{
  "contractName": "PointsExchange",
  "abi": [
    {
      "inputs": [
        {
          "internalType": "address",
          "name": "RPTokenAddr",
          "type": "address"
        }
      ],
      "stateMutability": "nonpayable",
      "type": "constructor"
    },
    {
      "anonymous": false,
      "inputs": [
        {
          "indexed": false,
          "internalType": "address",
          "name": "bank",
          "type": "address"
        },
        {
          "indexed": false,
          "internalType": "string",
          "name": "rate",
          "type": "string"
        }
      ],
      "name": "ChangeExchangeRate",
      "type": "event"
    },
    {
      "inputs": [
        {
          "internalType": "string",
          "name": "rate",
          "type": "string"
        }
      ],
      "name": "changeExchangeRate",
      "outputs": [],
      "stateMutability": "nonpayable",
      "type": "function"
    }
  ],
  "bytecode": "0x608060405234801561001057600080fd5b506040516107893803806107898339818101604052810190610032919061008d565b806000806101000a81548173ffffffffffffffffffffffffffffffffffffffff021916908373ffffffffffffffffffffffffffffffffffffffff160217905550506100ff565b600081519050610087816100e8565b92915050565b60006020828403121561009f57600080fd5b60006100ad84828501610078565b91505092915050565b60006100c1826100c8565b9050919050565b600073ffffffffffffffffffffffffffffffffffffffff82169050919050565b6100f1816100b6565b81146100fc57600080fd5b50565b61067b8061010e6000396000f3fe608060405234801561001057600080fd5b506004361061002b5760003560e01c806325de0f7514610030575b600080fd5b61004a6004803603810190610045919061032a565b61004c565b005b60008054906101000a900473ffffffffffffffffffffffffffffffffffffffff1673ffffffffffffffffffffffffffffffffffffffff166349d407c96100906101d9565b6040518263ffffffff1660e01b81526004016100ac91906103d6565b60206040518083038186803b1580156100c457600080fd5b505afa1580156100d8573d6000803e3d6000fd5b505050506040513d601f19601f820116820180604052508101906100fc9190610301565b61013b576040517f08c379a000000000000000000000000000000000000000000000000000000000815260040161013290610421565b60405180910390fd5b80600160006101486101d9565b73ffffffffffffffffffffffffffffffffffffffff1673ffffffffffffffffffffffffffffffffffffffff16815260200190815260200160002090805190602001906101959291906101e1565b507fd0492565e1a9316ca7b5713fff1ef8364eb9eb5b1600297ed675e4d930743f2a6101bf6101d9565b826040516101ce9291906103f1565b60405180910390a150565b600033905090565b8280546101ed90610533565b90600052602060002090601f01602090048101928261020f5760008555610256565b82601f1061022857805160ff1916838001178555610256565b82800160010185558215610256579182015b8281111561025557825182559160200191906001019061023a565b5b5090506102639190610267565b5090565b5b80821115610280576000816000905550600101610268565b5090565b600061029761029284610466565b610441565b9050828152602081018484840111156102af57600080fd5b6102ba8482856104f1565b509392505050565b6000815190506102d18161062e565b92915050565b600082601f8301126102e857600080fd5b81356102f8848260208601610284565b91505092915050565b60006020828403121561031357600080fd5b6000610321848285016102c2565b91505092915050565b60006020828403121561033c57600080fd5b600082013567ffffffffffffffff81111561035657600080fd5b610362848285016102d7565b91505092915050565b610374816104b3565b82525050565b600061038582610497565b61038f81856104a2565b935061039f818560208601610500565b6103a8816105f4565b840191505092915050565b60006103c06012836104a2565b91506103cb82610605565b602082019050919050565b60006020820190506103eb600083018461036b565b92915050565b6000604082019050610406600083018561036b565b8181036020830152610418818461037a565b90509392505050565b6000602082019050818103600083015261043a816103b3565b9050919050565b600061044b61045c565b90506104578282610565565b919050565b6000604051905090565b600067ffffffffffffffff821115610481576104806105c5565b5b61048a826105f4565b9050602081019050919050565b600081519050919050565b600082825260208201905092915050565b60006104be826104d1565b9050919050565b60008115159050919050565b600073ffffffffffffffffffffffffffffffffffffffff82169050919050565b82818337600083830152505050565b60005b8381101561051e578082015181840152602081019050610503565b8381111561052d576000848401525b50505050565b6000600282049050600182168061054b57607f821691505b6020821081141561055f5761055e610596565b5b50919050565b61056e826105f4565b810181811067ffffffffffffffff8211171561058d5761058c6105c5565b5b80604052505050565b7f4e487b7100000000000000000000000000000000000000000000000000000000600052602260045260246000fd5b7f4e487b7100000000000000000000000000000000000000000000000000000000600052604160045260246000fd5b6000601f19601f8301169050919050565b7f596f7520617265206e6f7420612062616e6b0000000000000000000000000000600082015250565b610637816104c5565b811461064257600080fd5b5056fea2646970667358221220678d4f58b130ced1d00f13c4822f02ab11f17efdb1cb5122b5f75368aec03bf964736f6c63430008040033",
  "immutableReferences": {},
  "source": "// \"SPDX-License-Identifier: UNLICENSED\"\n\npragma solidity ^0.8.0;\n\nimport \"./Context.sol\";\n\ncontract PointsExchange is Context {\n    PE_RPToken private _rp;\n    mapping(address => string) _exchangeRates; // Existing points issuer's address => 100 \n                                               // means 100 xx points -> 1 rp \n\n    event ChangeExchangeRate(address bank, string rate);\n\n    modifier onlyBank() {\n        require(_rp._banks(_msgSender()), \"You are not a bank\");\n        _;\n    }\n\n    constructor(address RPTokenAddr) {\n        _rp = PE_RPToken(RPTokenAddr);\n    }\n\n    function changeExchangeRate(string memory rate) public onlyBank {\n        _exchangeRates[_msgSender()] = rate;\n        emit ChangeExchangeRate(_msgSender(), rate);\n    }\n}\n\ncontract PE_RPToken {\n    function _banks(address) public view returns (bool) {}\n}\n",
  "sourcePath": "/Users/hc/Projects/Reward-Points-Platform/contracts/PointsExchange.sol",
  "compiler": {
    "name": "solc",
    "version": "0.8.4+commit.c7e474f2.Emscripten.clang"
  },
  "schemaVersion": "3.4.1",
  "updatedAt": "2021-05-21T05:36:48.520Z",
  "devdoc": {
    "kind": "dev",
    "methods": {},
    "version": 1
  },
  "userdoc": {
    "kind": "user",
    "methods": {},
    "version": 1
  }
}